{
  "address": "0x9f8380f152E7cfeb93D2e42Ff347f2C98bC655A4",
  "abi": [
    {
      "inputs": [
        {
          "components": [
            {
              "internalType": "uint256",
              "name": "seed",
              "type": "uint256"
            },
            {
              "internalType": "uint256",
              "name": "planetSize",
              "type": "uint256"
            },
            {
              "internalType": "bool",
              "name": "hasRings",
              "type": "bool"
            },
            {
              "internalType": "uint256",
              "name": "numMoons",
              "type": "uint256"
            },
            {
              "internalType": "enum PlanetType",
              "name": "planetType",
              "type": "uint8"
            },
            {
              "internalType": "uint256",
              "name": "hue",
              "type": "uint256"
            },
            {
              "internalType": "bool",
              "name": "hasWater",
              "type": "bool"
            },
            {
              "internalType": "bytes[7]",
              "name": "vars",
              "type": "bytes[7]"
            }
          ],
          "internalType": "struct Settings",
          "name": "_settings",
          "type": "tuple"
        }
      ],
      "name": "buildThumbnail",
      "outputs": [
        {
          "internalType": "bytes",
          "name": "",
          "type": "bytes"
        }
      ],
      "stateMutability": "view",
      "type": "function"
    }
  ],
  "transactionHash": "0xe0f32f156f607a7e491f9db482758a32da8e510f783aa825737372b56ab098e2",
  "args": [],
  "numDeployments": 1,
  "solcInputHash": "4ddda4e188f8b96f8f2fd106a7655699",
  "bytecode": "0x60806040526040518060600160405280604051806060016040528060308152602001620021ef6030913981526020016040518060600160405280603181526020016200221f6031913981526020016040518060600160405280602f815260200162002250602f913981525060009060036200007c92919062000091565b503480156200008a57600080fd5b50620004d2565b8260038101928215620000d1579160200282015b82811115620000d0578251829081620000bf9190620003eb565b5091602001919060010190620000a5565b5b509050620000e09190620000e4565b5090565b5b80821115620001085760008181620000fe91906200010c565b50600101620000e5565b5090565b5080546200011a90620001da565b6000825580601f106200012e57506200014f565b601f0160209004906000526020600020908101906200014e919062000152565b5b50565b5b808211156200016d57600081600090555060010162000153565b5090565b600081519050919050565b7f4e487b7100000000000000000000000000000000000000000000000000000000600052604160045260246000fd5b7f4e487b7100000000000000000000000000000000000000000000000000000000600052602260045260246000fd5b60006002820490506001821680620001f357607f821691505b602082108103620002095762000208620001ab565b5b50919050565b60008190508160005260206000209050919050565b60006020601f8301049050919050565b600082821b905092915050565b600060088302620002737fffffffffffffffffffffffffffffffffffffffffffffffffffffffffffffffff8262000234565b6200027f868362000234565b95508019841693508086168417925050509392505050565b6000819050919050565b6000819050919050565b6000620002cc620002c6620002c08462000297565b620002a1565b62000297565b9050919050565b6000819050919050565b620002e883620002ab565b62000300620002f782620002d3565b84845462000241565b825550505050565b600090565b6200031762000308565b62000324818484620002dd565b505050565b5b818110156200034c57620003406000826200030d565b6001810190506200032a565b5050565b601f8211156200039b5762000365816200020f565b620003708462000224565b8101602085101562000380578190505b620003986200038f8562000224565b83018262000329565b50505b505050565b600082821c905092915050565b6000620003c060001984600802620003a0565b1980831691505092915050565b6000620003db8383620003ad565b9150826002028217905092915050565b620003f68262000171565b67ffffffffffffffff8111156200041257620004116200017c565b5b6200041e8254620001da565b6200042b82828562000350565b600060209050601f8311600181146200046357600084156200044e578287015190505b6200045a8582620003cd565b865550620004ca565b601f19841662000473866200020f565b60005b828110156200049d5784890151825560018201915060208501945060208101905062000476565b86831015620004bd5784890151620004b9601f891682620003ad565b8355505b6001600288020188555050505b505050505050565b611d0d80620004e26000396000f3fe608060405234801561001057600080fd5b506004361061002b5760003560e01c8063c7d3625b14610030575b600080fd5b61004a600480360381019061004591906104d6565b610060565b60405161005791906105af565b60405180910390f35b6060600061006f6101f461029b565b61007a6101f461029b565b84604001602081019061008d9190610609565b6100cc576040518060400160405280600481526020017f6e6f6e65000000000000000000000000000000000000000000000000000000008152506100de565b6100dd8560a001356064600f6102ec565b5b6100ef8660a00135603c60286102ec565b60018081111561010257610101610636565b5b876080016020810190610115919061068a565b600181111561012757610126610636565b5b14610167576040518060400160405280600481526020017f6e6f6e6500000000000000000000000000000000000000000000000000000000815250610192565b61019161016860058960a0013561017e91906106f0565b6101889190610753565b602d60326102ec565b5b8760c00160208101906101a59190610609565b6101e4576040518060400160405280600481526020017f6e6f6e650000000000000000000000000000000000000000000000000000000081525061021b565b6040518060400160405280600781526020017f23323638304439000000000000000000000000000000000000000000000000008152505b6102266101f461029b565b6102316101f461029b565b6040518061022001604052806101fd8152602001611adb6101fd913961025a8c60200135610333565b6102678d6060013561039c565b6040516020016102819b9a99989796959493929190610d5f565b604051602081830303815290604052905080915050919050565b60606080604051019050602081016040526000815280600019835b6001156102d7578184019350600a81066030018453600a81049050806102b6575b50828203602084039350808452505050919050565b60606102f78461029b565b6103008461029b565b6103098461029b565b60405160200161031b93929190610f4b565b60405160208183030381529060405290509392505050565b606061035960286103e8846103489190610fb8565b6103529190610ffa565b600361043d565b604051806105c0016040528061058d815260200161152d61058d913960405160200161038692919061115b565b6040516020818303038152906040529050919050565b60606000604051806060016040528060218152602001611aba60219139905060005b838110156104115781600082600381106103db576103da6111a0565b5b016040516020016103ed9291906112c7565b60405160208183030381529060405291508080610409906112eb565b9150506103be565b50806040516020016104239190611333565b604051602081830303815290604052905080915050919050565b606061045f82600a61044f9190611488565b8461045a9190610ffa565b61029b565b61047f83600a61046f9190611488565b8561047a9190610753565b61029b565b6040516020016104909291906114f9565b604051602081830303815290604052905092915050565b600080fd5b600080fd5b600080fd5b600061010082840312156104cd576104cc6104b1565b5b81905092915050565b6000602082840312156104ec576104eb6104a7565b5b600082013567ffffffffffffffff81111561050a576105096104ac565b5b610516848285016104b6565b91505092915050565b600081519050919050565b600082825260208201905092915050565b60005b8381101561055957808201518184015260208101905061053e565b60008484015250505050565b6000601f19601f8301169050919050565b60006105818261051f565b61058b818561052a565b935061059b81856020860161053b565b6105a481610565565b840191505092915050565b600060208201905081810360008301526105c98184610576565b905092915050565b60008115159050919050565b6105e6816105d1565b81146105f157600080fd5b50565b600081359050610603816105dd565b92915050565b60006020828403121561061f5761061e6104a7565b5b600061062d848285016105f4565b91505092915050565b7f4e487b7100000000000000000000000000000000000000000000000000000000600052602160045260246000fd5b6002811061067257600080fd5b50565b60008135905061068481610665565b92915050565b6000602082840312156106a05761069f6104a7565b5b60006106ae84828501610675565b91505092915050565b6000819050919050565b7f4e487b7100000000000000000000000000000000000000000000000000000000600052601160045260246000fd5b60006106fb826106b7565b9150610706836106b7565b925082820190508082111561071e5761071d6106c1565b5b92915050565b7f4e487b7100000000000000000000000000000000000000000000000000000000600052601260045260246000fd5b600061075e826106b7565b9150610769836106b7565b92508261077957610778610724565b5b828206905092915050565b600081905092915050565b7f3c73766720786d6c6e733d22687474703a2f2f7777772e77332e6f72672f323060008201527f30302f737667222076696577426f783d22302030200000000000000000000000602082015250565b60006107eb603583610784565b91506107f68261078f565b603582019050919050565b600081519050919050565b600061081782610801565b6108218185610784565b935061083181856020860161053b565b80840191505092915050565b7f2000000000000000000000000000000000000000000000000000000000000000600082015250565b6000610873600183610784565b915061087e8261083d565b600182019050919050565b7f222077696474683d2235303022206865696768743d22353030222066696c6c3d60008201527f226e6f6e65223e00000000000000000000000000000000000000000000000000602082015250565b60006108e5602783610784565b91506108f082610889565b602782019050919050565b7f3c646566733e3c7374796c653e00000000000000000000000000000000000000600082015250565b6000610931600d83610784565b915061093c826108fb565b600d82019050919050565b7f2e72696e6773207b207374726f6b653a20000000000000000000000000000000600082015250565b600061097d601183610784565b915061098882610947565b601182019050919050565b7f3b207d0000000000000000000000000000000000000000000000000000000000600082015250565b60006109c9600383610784565b91506109d482610993565b600382019050919050565b7f2e626f6479207b2066696c6c3a20000000000000000000000000000000000000600082015250565b6000610a15600e83610784565b9150610a20826109df565b600e82019050919050565b7f2e626f64792d736563207b2066696c6c3a200000000000000000000000000000600082015250565b6000610a61601283610784565b9150610a6c82610a2b565b601282019050919050565b7f2e7761746572207b2066696c6c3a200000000000000000000000000000000000600082015250565b6000610aad600f83610784565b9150610ab882610a77565b600f82019050919050565b7f3c2f7374796c653e3c2f646566733e0000000000000000000000000000000000600082015250565b6000610af9600f83610784565b9150610b0482610ac3565b600f82019050919050565b7f3c7265637420783d22302220793d2230222077696474683d2200000000000000600082015250565b6000610b45601983610784565b9150610b5082610b0f565b601982019050919050565b7f22206865696768743d2200000000000000000000000000000000000000000000600082015250565b6000610b91600a83610784565b9150610b9c82610b5b565b600a82019050919050565b7f222066696c6c3d2223303030303030222f3e0000000000000000000000000000600082015250565b6000610bdd601283610784565b9150610be882610ba7565b601282019050919050565b600081905092915050565b6000610c098261051f565b610c138185610bf3565b9350610c2381856020860161053b565b80840191505092915050565b7f3c67207472616e73666f726d3d227472616e736c617465283434302c3437302960008201527f223e3c7465787420783d2231332220793d2230222066696c6c3d22236666662260208201527f20666f6e742d73697a653d2232342220666f6e742d66616d696c793d2248656c60408201527f766574696361223e32443c2f746578743e3c7465787420783d2231332220793d60608201527f223135222066696c6c3d22236666662220666f6e742d73697a653d223132222060808201527f666f6e742d66616d696c793d2248656c766574696361223e564945573c2f746560a08201527f78743e3c2f673e3c2f7376673e0000000000000000000000000000000000000060c082015250565b6000610d4960cd83610784565b9150610d5482610c2f565b60cd82019050919050565b6000610d6a826107de565b9150610d76828e61080c565b9150610d8182610866565b9150610d8d828d61080c565b9150610d98826108d8565b9150610da382610924565b9150610dae82610970565b9150610dba828c61080c565b9150610dc5826109bc565b9150610dd082610a08565b9150610ddc828b61080c565b9150610de7826109bc565b9150610df282610a54565b9150610dfe828a61080c565b9150610e09826109bc565b9150610e1482610aa0565b9150610e20828961080c565b9150610e2b826109bc565b9150610e3682610aec565b9150610e4182610b38565b9150610e4d828861080c565b9150610e5882610b84565b9150610e64828761080c565b9150610e6f82610bd0565b9150610e7b8286610bfe565b9150610e87828561080c565b9150610e938284610bfe565b9150610e9e82610d3c565b91508190509c9b505050505050505050505050565b7f68736c2800000000000000000000000000000000000000000000000000000000815250565b7f2c20000000000000000000000000000000000000000000000000000000000000815250565b7f252c200000000000000000000000000000000000000000000000000000000000815250565b7f2529000000000000000000000000000000000000000000000000000000000000815250565b6000610f5682610eb3565b600482019150610f66828661080c565b9150610f7182610ed9565b600282019150610f81828561080c565b9150610f8c82610eff565b600382019150610f9c828461080c565b9150610fa782610f25565b600282019150819050949350505050565b6000610fc3826106b7565b9150610fce836106b7565b9250828202610fdc816106b7565b91508282048414831517610ff357610ff26106c1565b5b5092915050565b6000611005826106b7565b9150611010836106b7565b9250826110205761101f610724565b5b828204905092915050565b7f3c67207472616e73666f726d2d6f726967696e3d22373220363022207472616e60008201527f73666f726d3d227472616e736c617465282d32362c2d3230292c7472616e736c60208201527f617465283230302c323030292c7363616c652800000000000000000000000000604082015250565b60006110ad605383610784565b91506110b88261102b565b605382019050919050565b7f29223e0000000000000000000000000000000000000000000000000000000000600082015250565b60006110f9600383610784565b9150611104826110c3565b600382019050919050565b7f3c2f673e00000000000000000000000000000000000000000000000000000000600082015250565b6000611145600483610784565b91506111508261110f565b600482019050919050565b6000611166826110a0565b9150611172828561080c565b915061117d826110ec565b91506111898284610bfe565b915061119482611138565b91508190509392505050565b7f4e487b7100000000000000000000000000000000000000000000000000000000600052603260045260246000fd5b7f4e487b7100000000000000000000000000000000000000000000000000000000600052602260045260246000fd5b6000600282049050600182168061121657607f821691505b602082108103611229576112286111cf565b5b50919050565b60008190508160005260206000209050919050565b60008154611251816111fe565b61125b8186610784565b94506001821660008114611276576001811461128b576112be565b60ff19831686528115158202860193506112be565b6112948561122f565b60005b838110156112b657815481890152600182019150602081019050611297565b838801955050505b50505092915050565b60006112d38285610bfe565b91506112df8284611244565b91508190509392505050565b60006112f6826106b7565b91507fffffffffffffffffffffffffffffffffffffffffffffffffffffffffffffffff8203611328576113276106c1565b5b600182019050919050565b600061133f8284610bfe565b915061134a82611138565b915081905092915050565b60008160011c9050919050565b6000808291508390505b60018511156113ac57808604811115611388576113876106c1565b5b60018516156113975780820291505b80810290506113a585611355565b945061136c565b94509492505050565b6000826113c55760019050611481565b816113d35760009050611481565b81600181146113e957600281146113f357611422565b6001915050611481565b60ff841115611405576114046106c1565b5b8360020a91508482111561141c5761141b6106c1565b5b50611481565b5060208310610133831016604e8410600b84101617156114575782820a905083811115611452576114516106c1565b5b611481565b6114648484846001611362565b9250905081840481111561147b5761147a6106c1565b5b81810290505b9392505050565b6000611493826106b7565b915061149e836106b7565b92506114cb7fffffffffffffffffffffffffffffffffffffffffffffffffffffffffffffffff84846113b5565b905092915050565b7f2e00000000000000000000000000000000000000000000000000000000000000815250565b6000611505828561080c565b9150611510826114d3565b600182019150611520828461080c565b9150819050939250505056fe3c7061746820636c6173733d2272696e677322207374726f6b652d77696474683d22382e3638362220643d224d3134392e3337392037392e32363463302d352e3735362d33322e3430362d31302e3432332d37322e33382d31302e3432332d33392e39373620302d37322e33383220342e3636372d37322e3338322031302e343233222f3e3c656c6c697073652063783d2237362e373133222063793d2236392e3939392220636c6173733d22626f6479222072783d2235302e303838222072793d2234392e373938222f3e3c6d61736b2069643d2261222077696474683d2231303122206865696768743d223130322220783d2232362220793d22313922206d61736b556e6974733d227573657253706163654f6e55736522207374796c653d226d61736b2d747970653a616c706861223e3c636972636c652063783d2237362e353135222063793d2237302220723d223530222066696c6c3d222341433030303022207472616e73666f726d3d22726f74617465282d33332e3930392037362e35313520373029222f3e3c2f6d61736b3e3c67206d61736b3d2275726c28236129223e3c7061746820636c6173733d2277617465722220643d224d38342e3834352034382e333333632e3437362d322e30363320322e3432382d382e30343720362e3432382d31352e34373620332e3034392d312e3930352031302e3739352d332e3031362031342e3238372d332e3333336831342e3034386c31352032352d382e38312032342e323835682d2e373134632d2e3537312e3537322d322e3134332e3535362d322e3835372e3437376c2d392e3736322d352e3437376132302e3233352032302e3233352030203020302d32312e3139322d31322e383537632d31322e39353220312e3134332d392e3638322d372e3933362d362e3432382d31322e3631395a4d33342e3133372036362e393034632d332e3233392d312e3333332d362e323720322e34362d372e33383120342e3532346c2d322e38353820312e34323920322e3134332032332e3039352032352e3437372032302e39353363312e3538372d312e38323620352d362e33383120352e3935322d313020312e31392d342e3532342d332e3333332d372e3835382d362e3930352d392e3238362d332e3537312d312e3432392d312e3930352d382e3537322d2e3731342d31312e34323920312e31392d322e3835372d332e3333342d382e3537312d382e3333342d31312e3432382d352d322e3835382d332e3333332d362e31392d372e33382d372e3835385a222f3e3c7061746820636c6173733d22626f64792d7365632220643d224d37322e35203130302e354336372039332e352038302038392e3520373820383463312e3333342d312e31363720352e322d342e342031302d3820362d342e352031392e35203020323320342e35732d2e352031312d332e35203230632d322e3420372e322d313020382d31332e3520372e352d352e3333332d2e3136372d31372e312d312e392d32312e352d372e355a4d34342037302e3563302d322d322e362d382e322d31332d31376c2d342e352d322032302d32352e3563322e31363720312e38333320372e3320342e342031302e35203020342d352e352031302e352e3520313320352e355336312e352034312037302034327338203120382031312e355337322e352035372037322e35203635732d392031312d3137203131632d362e3420302d31302e3333332d332e3636372d31312e352d352e355a222f3e3c2f673e3c7061746820636c6173733d2272696e677322207374726f6b652d77696474683d22382e3638362220643d224d3134392e3337392037382e313036633020352e3735372d33322e3430362031302e3432332d37322e33382031302e3432332d33392e39373620302d37322e3338322d342e3636362d37322e3338322d31302e343233222f3e3c67207472616e73666f726d3d227472616e736c6174652835302c31373029223e3c672066696c6c3d2223666666223e3c636972636c652063783d223530222063793d223130302220723d2232222066696c6c3d2223666666222f3e3c636972636c652063783d22323030222063793d223135302220723d2232222066696c6c3d2223666666222f3e3c636972636c652063783d22333030222063793d223235302220723d2232222066696c6c3d2223666666222f3e3c636972636c652063783d22343030222063793d2237352220723d2232222066696c6c3d2223666666222f3e3c636972636c652063783d22313735222063793d223230302220723d2232222066696c6c3d2223666666222f3e3c636972636c652063783d22343530222063793d223335302220723d2232222066696c6c3d2223666666222f3e3c636972636c652063783d22313235222063793d223430302220723d2232222066696c6c3d2223666666222f3e3c636972636c652063783d22333735222063793d223330302220723d2232222066696c6c3d2223666666222f3e3c636972636c652063783d22323235222063793d223337352220723d2232222066696c6c3d2223666666222f3e3c636972636c652063783d223735222063793d223235302220723d2232222066696c6c3d2223666666222f3e3c636972636c652063783d223235222063793d2232352220723d2232222066696c6c3d2223666666222f3e3c2f673ea2646970667358221220f93b731dd9e4f3500d1cb797cc4d96be5eb55b9570a2801c72b2be5a5adafab664736f6c634300081200333c636972636c652063783d223232222063793d223137312220723d223232222066696c6c3d2223424242424242222f3e3c636972636c652063783d22333730222063793d223130362220723d223136222066696c6c3d2223424242424242222f3e3c636972636c652063783d223330222063793d2231312220723d223131222066696c6c3d2223424242424242222f3e",
  "libraries": {
    "utils": "0x833d32d05DdCaFCbd9483A03aD8a1a22F3160F3A"
  },
  "devdoc": {
    "kind": "dev",
    "methods": {
      "buildThumbnail((uint256,uint256,bool,uint256,uint8,uint256,bool,bytes[7]))": {
        "params": {
          "_settings": "- Track settings struct"
        },
        "returns": {
          "_0": "final svg as bytes"
        }
      }
    },
    "version": 1
  },
  "userdoc": {
    "kind": "user",
    "methods": {
      "buildThumbnail((uint256,uint256,bool,uint256,uint8,uint256,bool,bytes[7]))": {
        "notice": "Build the SVG thumbnail"
      }
    },
    "version": 1
  },
  "storageLayout": {
    "storage": [
      {
        "astId": 995,
        "contract": "contracts/PlanetsThumbnail.sol:PlanetsThumbnail",
        "label": "MOONS",
        "offset": 0,
        "slot": "0",
        "type": "t_array(t_string_storage)3_storage"
      }
    ],
    "types": {
      "t_array(t_string_storage)3_storage": {
        "base": "t_string_storage",
        "encoding": "inplace",
        "label": "string[3]",
        "numberOfBytes": "96"
      },
      "t_string_storage": {
        "encoding": "bytes",
        "label": "string",
        "numberOfBytes": "32"
      }
    }
  }
}