{
  "address": "0xdAbb3cC7c35147e985BAB67799219b363830cF5A",
  "abi": [
    {
      "inputs": [
        {
          "internalType": "string",
          "name": "name",
          "type": "string"
        },
        {
          "internalType": "string",
          "name": "symbol",
          "type": "string"
        },
        {
          "internalType": "uint256",
          "name": "_supply",
          "type": "uint256"
        },
        {
          "internalType": "uint256",
          "name": "_price",
          "type": "uint256"
        },
        {
          "internalType": "address",
          "name": "_thumbnailAddress",
          "type": "address"
        },
        {
          "internalType": "address",
          "name": "_rendererAddress",
          "type": "address"
        }
      ],
      "stateMutability": "nonpayable",
      "type": "constructor"
    },
    {
      "inputs": [],
      "name": "ApprovalCallerNotOwnerNorApproved",
      "type": "error"
    },
    {
      "inputs": [],
      "name": "ApprovalQueryForNonexistentToken",
      "type": "error"
    },
    {
      "inputs": [],
      "name": "BalanceQueryForZeroAddress",
      "type": "error"
    },
    {
      "inputs": [],
      "name": "Finalized",
      "type": "error"
    },
    {
      "inputs": [],
      "name": "InsufficientFunds",
      "type": "error"
    },
    {
      "inputs": [],
      "name": "MintClosed",
      "type": "error"
    },
    {
      "inputs": [],
      "name": "MintERC2309QuantityExceedsLimit",
      "type": "error"
    },
    {
      "inputs": [],
      "name": "MintToZeroAddress",
      "type": "error"
    },
    {
      "inputs": [],
      "name": "MintZeroQuantity",
      "type": "error"
    },
    {
      "inputs": [],
      "name": "OwnerQueryForNonexistentToken",
      "type": "error"
    },
    {
      "inputs": [],
      "name": "OwnershipNotInitializedForExtraData",
      "type": "error"
    },
    {
      "inputs": [],
      "name": "RefundFailed",
      "type": "error"
    },
    {
      "inputs": [],
      "name": "SoldOut",
      "type": "error"
    },
    {
      "inputs": [],
      "name": "TokenDoesntExist",
      "type": "error"
    },
    {
      "inputs": [],
      "name": "TransferCallerNotOwnerNorApproved",
      "type": "error"
    },
    {
      "inputs": [],
      "name": "TransferFromIncorrectOwner",
      "type": "error"
    },
    {
      "inputs": [],
      "name": "TransferToNonERC721ReceiverImplementer",
      "type": "error"
    },
    {
      "inputs": [],
      "name": "TransferToZeroAddress",
      "type": "error"
    },
    {
      "inputs": [],
      "name": "URIQueryForNonexistentToken",
      "type": "error"
    },
    {
      "anonymous": false,
      "inputs": [
        {
          "indexed": true,
          "internalType": "address",
          "name": "owner",
          "type": "address"
        },
        {
          "indexed": true,
          "internalType": "address",
          "name": "approved",
          "type": "address"
        },
        {
          "indexed": true,
          "internalType": "uint256",
          "name": "tokenId",
          "type": "uint256"
        }
      ],
      "name": "Approval",
      "type": "event"
    },
    {
      "anonymous": false,
      "inputs": [
        {
          "indexed": true,
          "internalType": "address",
          "name": "owner",
          "type": "address"
        },
        {
          "indexed": true,
          "internalType": "address",
          "name": "operator",
          "type": "address"
        },
        {
          "indexed": false,
          "internalType": "bool",
          "name": "approved",
          "type": "bool"
        }
      ],
      "name": "ApprovalForAll",
      "type": "event"
    },
    {
      "anonymous": false,
      "inputs": [
        {
          "indexed": true,
          "internalType": "uint256",
          "name": "fromTokenId",
          "type": "uint256"
        },
        {
          "indexed": false,
          "internalType": "uint256",
          "name": "toTokenId",
          "type": "uint256"
        },
        {
          "indexed": true,
          "internalType": "address",
          "name": "from",
          "type": "address"
        },
        {
          "indexed": true,
          "internalType": "address",
          "name": "to",
          "type": "address"
        }
      ],
      "name": "ConsecutiveTransfer",
      "type": "event"
    },
    {
      "anonymous": false,
      "inputs": [
        {
          "indexed": true,
          "internalType": "address",
          "name": "previousOwner",
          "type": "address"
        },
        {
          "indexed": true,
          "internalType": "address",
          "name": "newOwner",
          "type": "address"
        }
      ],
      "name": "OwnershipTransferred",
      "type": "event"
    },
    {
      "anonymous": false,
      "inputs": [
        {
          "indexed": true,
          "internalType": "address",
          "name": "from",
          "type": "address"
        },
        {
          "indexed": true,
          "internalType": "address",
          "name": "to",
          "type": "address"
        },
        {
          "indexed": true,
          "internalType": "uint256",
          "name": "tokenId",
          "type": "uint256"
        }
      ],
      "name": "Transfer",
      "type": "event"
    },
    {
      "inputs": [
        {
          "internalType": "address[]",
          "name": "_recipients",
          "type": "address[]"
        },
        {
          "internalType": "uint256",
          "name": "_quantity",
          "type": "uint256"
        }
      ],
      "name": "airdrop",
      "outputs": [],
      "stateMutability": "payable",
      "type": "function"
    },
    {
      "inputs": [
        {
          "internalType": "address",
          "name": "to",
          "type": "address"
        },
        {
          "internalType": "uint256",
          "name": "tokenId",
          "type": "uint256"
        }
      ],
      "name": "approve",
      "outputs": [],
      "stateMutability": "payable",
      "type": "function"
    },
    {
      "inputs": [
        {
          "internalType": "address",
          "name": "owner",
          "type": "address"
        }
      ],
      "name": "balanceOf",
      "outputs": [
        {
          "internalType": "uint256",
          "name": "",
          "type": "uint256"
        }
      ],
      "stateMutability": "view",
      "type": "function"
    },
    {
      "inputs": [
        {
          "components": [
            {
              "internalType": "uint256",
              "name": "seed",
              "type": "uint256"
            },
            {
              "internalType": "uint256",
              "name": "planetSize",
              "type": "uint256"
            },
            {
              "internalType": "bool",
              "name": "hasRings",
              "type": "bool"
            },
            {
              "internalType": "uint256",
              "name": "numMoons",
              "type": "uint256"
            },
            {
              "internalType": "enum PlanetType",
              "name": "planetType",
              "type": "uint8"
            },
            {
              "internalType": "uint256",
              "name": "hue",
              "type": "uint256"
            },
            {
              "internalType": "bool",
              "name": "hasWater",
              "type": "bool"
            },
            {
              "internalType": "bytes[7]",
              "name": "vars",
              "type": "bytes[7]"
            }
          ],
          "internalType": "struct Settings",
          "name": "settings",
          "type": "tuple"
        }
      ],
      "name": "buildAttributes",
      "outputs": [
        {
          "internalType": "string",
          "name": "attr",
          "type": "string"
        }
      ],
      "stateMutability": "pure",
      "type": "function"
    },
    {
      "inputs": [
        {
          "internalType": "uint256",
          "name": "_tokenId",
          "type": "uint256"
        }
      ],
      "name": "buildSettings",
      "outputs": [
        {
          "components": [
            {
              "internalType": "uint256",
              "name": "seed",
              "type": "uint256"
            },
            {
              "internalType": "uint256",
              "name": "planetSize",
              "type": "uint256"
            },
            {
              "internalType": "bool",
              "name": "hasRings",
              "type": "bool"
            },
            {
              "internalType": "uint256",
              "name": "numMoons",
              "type": "uint256"
            },
            {
              "internalType": "enum PlanetType",
              "name": "planetType",
              "type": "uint8"
            },
            {
              "internalType": "uint256",
              "name": "hue",
              "type": "uint256"
            },
            {
              "internalType": "bool",
              "name": "hasWater",
              "type": "bool"
            },
            {
              "internalType": "bytes[7]",
              "name": "vars",
              "type": "bytes[7]"
            }
          ],
          "internalType": "struct Settings",
          "name": "settings",
          "type": "tuple"
        }
      ],
      "stateMutability": "view",
      "type": "function"
    },
    {
      "inputs": [
        {
          "components": [
            {
              "internalType": "uint256",
              "name": "seed",
              "type": "uint256"
            },
            {
              "internalType": "uint256",
              "name": "planetSize",
              "type": "uint256"
            },
            {
              "internalType": "bool",
              "name": "hasRings",
              "type": "bool"
            },
            {
              "internalType": "uint256",
              "name": "numMoons",
              "type": "uint256"
            },
            {
              "internalType": "enum PlanetType",
              "name": "planetType",
              "type": "uint8"
            },
            {
              "internalType": "uint256",
              "name": "hue",
              "type": "uint256"
            },
            {
              "internalType": "bool",
              "name": "hasWater",
              "type": "bool"
            },
            {
              "internalType": "bytes[7]",
              "name": "vars",
              "type": "bytes[7]"
            }
          ],
          "internalType": "struct Settings",
          "name": "settings",
          "type": "tuple"
        }
      ],
      "name": "buildVars",
      "outputs": [
        {
          "internalType": "bytes",
          "name": "vars",
          "type": "bytes"
        }
      ],
      "stateMutability": "pure",
      "type": "function"
    },
    {
      "inputs": [],
      "name": "deployBlock",
      "outputs": [
        {
          "internalType": "uint256",
          "name": "",
          "type": "uint256"
        }
      ],
      "stateMutability": "view",
      "type": "function"
    },
    {
      "inputs": [],
      "name": "finalize",
      "outputs": [],
      "stateMutability": "nonpayable",
      "type": "function"
    },
    {
      "inputs": [],
      "name": "finalized",
      "outputs": [
        {
          "internalType": "bool",
          "name": "",
          "type": "bool"
        }
      ],
      "stateMutability": "view",
      "type": "function"
    },
    {
      "inputs": [
        {
          "internalType": "uint256",
          "name": "tokenId",
          "type": "uint256"
        }
      ],
      "name": "getApproved",
      "outputs": [
        {
          "internalType": "address",
          "name": "",
          "type": "address"
        }
      ],
      "stateMutability": "view",
      "type": "function"
    },
    {
      "inputs": [
        {
          "internalType": "address",
          "name": "owner",
          "type": "address"
        },
        {
          "internalType": "address",
          "name": "operator",
          "type": "address"
        }
      ],
      "name": "isApprovedForAll",
      "outputs": [
        {
          "internalType": "bool",
          "name": "",
          "type": "bool"
        }
      ],
      "stateMutability": "view",
      "type": "function"
    },
    {
      "inputs": [],
      "name": "isOpen",
      "outputs": [
        {
          "internalType": "bool",
          "name": "",
          "type": "bool"
        }
      ],
      "stateMutability": "view",
      "type": "function"
    },
    {
      "inputs": [
        {
          "internalType": "uint256",
          "name": "_quantity",
          "type": "uint256"
        }
      ],
      "name": "mint",
      "outputs": [],
      "stateMutability": "payable",
      "type": "function"
    },
    {
      "inputs": [],
      "name": "name",
      "outputs": [
        {
          "internalType": "string",
          "name": "",
          "type": "string"
        }
      ],
      "stateMutability": "view",
      "type": "function"
    },
    {
      "inputs": [],
      "name": "owner",
      "outputs": [
        {
          "internalType": "address",
          "name": "",
          "type": "address"
        }
      ],
      "stateMutability": "view",
      "type": "function"
    },
    {
      "inputs": [
        {
          "internalType": "uint256",
          "name": "tokenId",
          "type": "uint256"
        }
      ],
      "name": "ownerOf",
      "outputs": [
        {
          "internalType": "address",
          "name": "",
          "type": "address"
        }
      ],
      "stateMutability": "view",
      "type": "function"
    },
    {
      "inputs": [],
      "name": "price",
      "outputs": [
        {
          "internalType": "uint256",
          "name": "",
          "type": "uint256"
        }
      ],
      "stateMutability": "view",
      "type": "function"
    },
    {
      "inputs": [],
      "name": "rendererAddress",
      "outputs": [
        {
          "internalType": "address",
          "name": "",
          "type": "address"
        }
      ],
      "stateMutability": "view",
      "type": "function"
    },
    {
      "inputs": [],
      "name": "renounceOwnership",
      "outputs": [],
      "stateMutability": "nonpayable",
      "type": "function"
    },
    {
      "inputs": [
        {
          "internalType": "address",
          "name": "from",
          "type": "address"
        },
        {
          "internalType": "address",
          "name": "to",
          "type": "address"
        },
        {
          "internalType": "uint256",
          "name": "tokenId",
          "type": "uint256"
        }
      ],
      "name": "safeTransferFrom",
      "outputs": [],
      "stateMutability": "payable",
      "type": "function"
    },
    {
      "inputs": [
        {
          "internalType": "address",
          "name": "from",
          "type": "address"
        },
        {
          "internalType": "address",
          "name": "to",
          "type": "address"
        },
        {
          "internalType": "uint256",
          "name": "tokenId",
          "type": "uint256"
        },
        {
          "internalType": "bytes",
          "name": "_data",
          "type": "bytes"
        }
      ],
      "name": "safeTransferFrom",
      "outputs": [],
      "stateMutability": "payable",
      "type": "function"
    },
    {
      "inputs": [
        {
          "internalType": "address",
          "name": "operator",
          "type": "address"
        },
        {
          "internalType": "bool",
          "name": "approved",
          "type": "bool"
        }
      ],
      "name": "setApprovalForAll",
      "outputs": [],
      "stateMutability": "nonpayable",
      "type": "function"
    },
    {
      "inputs": [
        {
          "internalType": "bool",
          "name": "_state",
          "type": "bool"
        }
      ],
      "name": "setMintStatus",
      "outputs": [],
      "stateMutability": "nonpayable",
      "type": "function"
    },
    {
      "inputs": [
        {
          "internalType": "uint256",
          "name": "_price",
          "type": "uint256"
        }
      ],
      "name": "setPrice",
      "outputs": [],
      "stateMutability": "nonpayable",
      "type": "function"
    },
    {
      "inputs": [
        {
          "internalType": "address",
          "name": "_rendererAddress",
          "type": "address"
        }
      ],
      "name": "setRendererAddress",
      "outputs": [],
      "stateMutability": "nonpayable",
      "type": "function"
    },
    {
      "inputs": [
        {
          "internalType": "address",
          "name": "_thumbnailAddress",
          "type": "address"
        }
      ],
      "name": "setThumbnailAddress",
      "outputs": [],
      "stateMutability": "nonpayable",
      "type": "function"
    },
    {
      "inputs": [],
      "name": "supply",
      "outputs": [
        {
          "internalType": "uint256",
          "name": "",
          "type": "uint256"
        }
      ],
      "stateMutability": "view",
      "type": "function"
    },
    {
      "inputs": [
        {
          "internalType": "bytes4",
          "name": "interfaceId",
          "type": "bytes4"
        }
      ],
      "name": "supportsInterface",
      "outputs": [
        {
          "internalType": "bool",
          "name": "",
          "type": "bool"
        }
      ],
      "stateMutability": "view",
      "type": "function"
    },
    {
      "inputs": [],
      "name": "symbol",
      "outputs": [
        {
          "internalType": "string",
          "name": "",
          "type": "string"
        }
      ],
      "stateMutability": "view",
      "type": "function"
    },
    {
      "inputs": [],
      "name": "thumbnailAddress",
      "outputs": [
        {
          "internalType": "address",
          "name": "",
          "type": "address"
        }
      ],
      "stateMutability": "view",
      "type": "function"
    },
    {
      "inputs": [
        {
          "internalType": "uint256",
          "name": "_tokenId",
          "type": "uint256"
        }
      ],
      "name": "tokenURI",
      "outputs": [
        {
          "internalType": "string",
          "name": "metadata",
          "type": "string"
        }
      ],
      "stateMutability": "view",
      "type": "function"
    },
    {
      "inputs": [],
      "name": "totalMinted",
      "outputs": [
        {
          "internalType": "uint256",
          "name": "",
          "type": "uint256"
        }
      ],
      "stateMutability": "view",
      "type": "function"
    },
    {
      "inputs": [],
      "name": "totalSupply",
      "outputs": [
        {
          "internalType": "uint256",
          "name": "",
          "type": "uint256"
        }
      ],
      "stateMutability": "view",
      "type": "function"
    },
    {
      "inputs": [
        {
          "internalType": "address",
          "name": "from",
          "type": "address"
        },
        {
          "internalType": "address",
          "name": "to",
          "type": "address"
        },
        {
          "internalType": "uint256",
          "name": "tokenId",
          "type": "uint256"
        }
      ],
      "name": "transferFrom",
      "outputs": [],
      "stateMutability": "payable",
      "type": "function"
    },
    {
      "inputs": [
        {
          "internalType": "address",
          "name": "newOwner",
          "type": "address"
        }
      ],
      "name": "transferOwnership",
      "outputs": [],
      "stateMutability": "nonpayable",
      "type": "function"
    },
    {
      "inputs": [],
      "name": "withdraw",
      "outputs": [],
      "stateMutability": "nonpayable",
      "type": "function"
    }
  ],
  "transactionHash": "0xc05d92c4b71c5398b32be8232a9f04947dcca79a04fb751d5de5e103b999183c",
  "args": [
    "EtherPlanets",
    "EP",
    4242,
    "4200000000000000",
    "0x07e12F3F0bFCeEE2B92B68eD485E85B896761C75",
    "0x16ec9b5a0aef45cA3642000Df11f0b2C42Bdac45"
  ],
  "numDeployments": 1,
  "solcInputHash": "4606a8fba972cdde1ca2c7fec03eb1c2",
  "bytecode": "0x60c06040523480156200001157600080fd5b506040516200515338038062005153833981810160405281019062000037919062000444565b858581600290816200004a91906200075f565b5080600390816200005c91906200075f565b506200006d6200013a60201b60201c565b600081905550505062000095620000896200014360201b60201c565b6200014b60201b60201c565b81600960006101000a81548173ffffffffffffffffffffffffffffffffffffffff021916908373ffffffffffffffffffffffffffffffffffffffff16021790555080600a60006101000a81548173ffffffffffffffffffffffffffffffffffffffff021916908373ffffffffffffffffffffffffffffffffffffffff1602179055508360a0818152505082600b81905550436080818152505050505050505062000846565b60006001905090565b600033905090565b6000600860009054906101000a900473ffffffffffffffffffffffffffffffffffffffff16905081600860006101000a81548173ffffffffffffffffffffffffffffffffffffffff021916908373ffffffffffffffffffffffffffffffffffffffff1602179055508173ffffffffffffffffffffffffffffffffffffffff168173ffffffffffffffffffffffffffffffffffffffff167f8be0079c531659141344cd1fd0a4f28419497f9722a3daafe3b4186f6b6457e060405160405180910390a35050565b6000604051905090565b600080fd5b600080fd5b600080fd5b600080fd5b6000601f19601f8301169050919050565b7f4e487b7100000000000000000000000000000000000000000000000000000000600052604160045260246000fd5b6200027a826200022f565b810181811067ffffffffffffffff821117156200029c576200029b62000240565b5b80604052505050565b6000620002b162000211565b9050620002bf82826200026f565b919050565b600067ffffffffffffffff821115620002e257620002e162000240565b5b620002ed826200022f565b9050602081019050919050565b60005b838110156200031a578082015181840152602081019050620002fd565b60008484015250505050565b60006200033d6200033784620002c4565b620002a5565b9050828152602081018484840111156200035c576200035b6200022a565b5b62000369848285620002fa565b509392505050565b600082601f83011262000389576200038862000225565b5b81516200039b84826020860162000326565b91505092915050565b6000819050919050565b620003b981620003a4565b8114620003c557600080fd5b50565b600081519050620003d981620003ae565b92915050565b600073ffffffffffffffffffffffffffffffffffffffff82169050919050565b60006200040c82620003df565b9050919050565b6200041e81620003ff565b81146200042a57600080fd5b50565b6000815190506200043e8162000413565b92915050565b60008060008060008060c087890312156200046457620004636200021b565b5b600087015167ffffffffffffffff81111562000485576200048462000220565b5b6200049389828a0162000371565b965050602087015167ffffffffffffffff811115620004b757620004b662000220565b5b620004c589828a0162000371565b9550506040620004d889828a01620003c8565b9450506060620004eb89828a01620003c8565b9350506080620004fe89828a016200042d565b92505060a06200051189828a016200042d565b9150509295509295509295565b600081519050919050565b7f4e487b7100000000000000000000000000000000000000000000000000000000600052602260045260246000fd5b600060028204905060018216806200057157607f821691505b60208210810362000587576200058662000529565b5b50919050565b60008190508160005260206000209050919050565b60006020601f8301049050919050565b600082821b905092915050565b600060088302620005f17fffffffffffffffffffffffffffffffffffffffffffffffffffffffffffffffff82620005b2565b620005fd8683620005b2565b95508019841693508086168417925050509392505050565b6000819050919050565b6000620006406200063a6200063484620003a4565b62000615565b620003a4565b9050919050565b6000819050919050565b6200065c836200061f565b620006746200066b8262000647565b848454620005bf565b825550505050565b600090565b6200068b6200067c565b6200069881848462000651565b505050565b5b81811015620006c057620006b460008262000681565b6001810190506200069e565b5050565b601f8211156200070f57620006d9816200058d565b620006e484620005a2565b81016020851015620006f4578190505b6200070c6200070385620005a2565b8301826200069d565b50505b505050565b600082821c905092915050565b6000620007346000198460080262000714565b1980831691505092915050565b60006200074f838362000721565b9150826002028217905092915050565b6200076a826200051e565b67ffffffffffffffff81111562000786576200078562000240565b5b62000792825462000558565b6200079f828285620006c4565b600060209050601f831160018114620007d75760008415620007c2578287015190505b620007ce858262000741565b8655506200083e565b601f198416620007e7866200058d565b60005b828110156200081157848901518255600182019150602085019450602081019050620007ea565b868310156200083157848901516200082d601f89168262000721565b8355505b6001600288020188555050505b505050505050565b60805160a0516148d262000881600039600081816108b401528181611b5f01526120510152600081816113e60152611e0b01526148d26000f3fe60806040526004361061020f5760003560e01c806391b7f5ed11610118578063afbfbaa0116100a0578063c87b56dd1161006f578063c87b56dd14610729578063d67c52eb14610766578063d949bc5f14610791578063e985e9c5146107ba578063f2fde38b146107f75761020f565b8063afbfbaa014610689578063b3f05b97146106c6578063b88d4fde146106f1578063c204642c1461070d5761020f565b8063a0712d68116100e7578063a0712d68146105c5578063a22cb465146105e1578063a2309ff81461060a578063a3ec191a14610635578063a556f60f146106605761020f565b806391b7f5ed1461051b57806395d89b411461054457806399e8fa261461056f578063a035b1fe1461059a5761020f565b806342842e0e1161019b57806366d76b2c1161016a57806366d76b2c1461042257806370a082311461045f578063715018a61461049c5780637607b6db146104b35780638da5cb5b146104f05761020f565b806342842e0e1461038757806347535d7b146103a35780634bb278f3146103ce5780636352211e146103e55761020f565b8063095ea7b3116101e2578063095ea7b3146102e457806318160ddd146103005780631f85e3ca1461032b57806323b872dd146103545780633ccfd60b146103705761020f565b806301ffc9a714610214578063047fc9aa1461025157806306fdde031461027c578063081812fc146102a7575b600080fd5b34801561022057600080fd5b5061023b60048036038101906102369190612f2e565b610820565b6040516102489190612f76565b60405180910390f35b34801561025d57600080fd5b506102666108b2565b6040516102739190612faa565b60405180910390f35b34801561028857600080fd5b506102916108d6565b60405161029e9190613055565b60405180910390f35b3480156102b357600080fd5b506102ce60048036038101906102c991906130a3565b610968565b6040516102db9190613111565b60405180910390f35b6102fe60048036038101906102f99190613158565b6109e7565b005b34801561030c57600080fd5b50610315610b2b565b6040516103229190612faa565b60405180910390f35b34801561033757600080fd5b50610352600480360381019061034d91906131c4565b610b42565b005b61036e600480360381019061036991906131f1565b610b67565b005b34801561037c57600080fd5b50610385610e89565b005b6103a1600480360381019061039c91906131f1565b610ed1565b005b3480156103af57600080fd5b506103b8610ef1565b6040516103c59190612f76565b60405180910390f35b3480156103da57600080fd5b506103e3610f04565b005b3480156103f157600080fd5b5061040c600480360381019061040791906130a3565b610f29565b6040516104199190613111565b60405180910390f35b34801561042e57600080fd5b5061044960048036038101906104449190613562565b610f3b565b6040516104569190613055565b60405180910390f35b34801561046b57600080fd5b50610486600480360381019061048191906135ab565b61130e565b6040516104939190612faa565b60405180910390f35b3480156104a857600080fd5b506104b16113c6565b005b3480156104bf57600080fd5b506104da60048036038101906104d591906130a3565b6113da565b6040516104e79190613828565b60405180910390f35b3480156104fc57600080fd5b50610505611a1d565b6040516105129190613111565b60405180910390f35b34801561052757600080fd5b50610542600480360381019061053d91906130a3565b611a47565b005b34801561055057600080fd5b50610559611a59565b6040516105669190613055565b60405180910390f35b34801561057b57600080fd5b50610584611aeb565b6040516105919190613111565b60405180910390f35b3480156105a657600080fd5b506105af611b11565b6040516105bc9190612faa565b60405180910390f35b6105df60048036038101906105da91906130a3565b611b17565b005b3480156105ed57600080fd5b506106086004803603810190610603919061384a565b611cef565b005b34801561061657600080fd5b5061061f611dfa565b60405161062c9190612faa565b60405180910390f35b34801561064157600080fd5b5061064a611e09565b6040516106579190612faa565b60405180910390f35b34801561066c57600080fd5b50610687600480360381019061068291906135ab565b611e2d565b005b34801561069557600080fd5b506106b060048036038101906106ab9190613562565b611ec0565b6040516106bd91906138d4565b60405180910390f35b3480156106d257600080fd5b506106db611fc1565b6040516106e89190612f76565b60405180910390f35b61070b600480360381019061070691906138f6565b611fd4565b005b610727600480360381019061072291906139d4565b612047565b005b34801561073557600080fd5b50610750600480360381019061074b91906130a3565b612121565b60405161075d9190613055565b60405180910390f35b34801561077257600080fd5b5061077b61233a565b6040516107889190613111565b60405180910390f35b34801561079d57600080fd5b506107b860048036038101906107b391906135ab565b612360565b005b3480156107c657600080fd5b506107e160048036038101906107dc9190613a34565b6123f3565b6040516107ee9190612f76565b60405180910390f35b34801561080357600080fd5b5061081e600480360381019061081991906135ab565b612487565b005b60006301ffc9a760e01b827bffffffffffffffffffffffffffffffffffffffffffffffffffffffff1916148061087b57506380ac58cd60e01b827bffffffffffffffffffffffffffffffffffffffffffffffffffffffff1916145b806108ab5750635b5e139f60e01b827bffffffffffffffffffffffffffffffffffffffffffffffffffffffff1916145b9050919050565b7f000000000000000000000000000000000000000000000000000000000000000081565b6060600280546108e590613aa3565b80601f016020809104026020016040519081016040528092919081815260200182805461091190613aa3565b801561095e5780601f106109335761010080835404028352916020019161095e565b820191906000526020600020905b81548152906001019060200180831161094157829003601f168201915b5050505050905090565b60006109738261250a565b6109a9576040517fcf4700e400000000000000000000000000000000000000000000000000000000815260040160405180910390fd5b6006600083815260200190815260200160002060000160009054906101000a900473ffffffffffffffffffffffffffffffffffffffff169050919050565b60006109f282610f29565b90508073ffffffffffffffffffffffffffffffffffffffff16610a13612569565b73ffffffffffffffffffffffffffffffffffffffff1614610a7657610a3f81610a3a612569565b6123f3565b610a75576040517fcfb3b94200000000000000000000000000000000000000000000000000000000815260040160405180910390fd5b5b826006600084815260200190815260200160002060000160006101000a81548173ffffffffffffffffffffffffffffffffffffffff021916908373ffffffffffffffffffffffffffffffffffffffff160217905550818373ffffffffffffffffffffffffffffffffffffffff168273ffffffffffffffffffffffffffffffffffffffff167f8c5be1e5ebec7d5bd14f71427d1e84f3dd0314c0f7b2291e5b200ac8c7c3b92560405160405180910390a4505050565b6000610b35612571565b6001546000540303905090565b610b4a61257a565b80600c60006101000a81548160ff02191690831515021790555050565b6000610b72826125f8565b90508373ffffffffffffffffffffffffffffffffffffffff168173ffffffffffffffffffffffffffffffffffffffff1614610bd9576040517fa114810000000000000000000000000000000000000000000000000000000000815260040160405180910390fd5b600080610be5846126c4565b91509150610bfb8187610bf6612569565b6126eb565b610c4757610c1086610c0b612569565b6123f3565b610c46576040517f59c896be00000000000000000000000000000000000000000000000000000000815260040160405180910390fd5b5b600073ffffffffffffffffffffffffffffffffffffffff168573ffffffffffffffffffffffffffffffffffffffff1603610cad576040517fea553b3400000000000000000000000000000000000000000000000000000000815260040160405180910390fd5b610cba868686600161272f565b8015610cc557600082555b600560008773ffffffffffffffffffffffffffffffffffffffff1673ffffffffffffffffffffffffffffffffffffffff168152602001908152602001600020600081546001900391905081905550600560008673ffffffffffffffffffffffffffffffffffffffff1673ffffffffffffffffffffffffffffffffffffffff1681526020019081526020016000206000815460010191905081905550610d9385610d6f888887612735565b7c02000000000000000000000000000000000000000000000000000000001761275d565b600460008681526020019081526020016000208190555060007c0200000000000000000000000000000000000000000000000000000000841603610e195760006001850190506000600460008381526020019081526020016000205403610e17576000548114610e16578360046000838152602001908152602001600020819055505b5b505b838573ffffffffffffffffffffffffffffffffffffffff168773ffffffffffffffffffffffffffffffffffffffff167fddf252ad1be2c89b69c2b068fc378daa952ba7f163c4a11628f55a4df523b3ef60405160405180910390a4610e818686866001612788565b505050505050565b610e9161257a565b3373ffffffffffffffffffffffffffffffffffffffff166108fc479081150290604051600060405180830381858888f19350505050610ecf57600080fd5b565b610eec83838360405180602001604052806000815250611fd4565b505050565b600c60009054906101000a900460ff1681565b610f0c61257a565b6001600c60016101000a81548160ff021916908315150217905550565b6000610f34826125f8565b9050919050565b6060610f886040518060400160405280600b81526020017f506c616e65742053697a65000000000000000000000000000000000000000000815250610f83846020015161278e565b6127df565b6110416040518060400160405280600981526020017f4861732052696e677300000000000000000000000000000000000000000000008152508460400151611005576040518060400160405280600281526020017f4e6f00000000000000000000000000000000000000000000000000000000000081525061103c565b6040518060400160405280600381526020017f59657300000000000000000000000000000000000000000000000000000000008152505b61280b565b6110fa6040518060400160405280600981526020017f48617320576174657200000000000000000000000000000000000000000000008152508560c001516110be576040518060400160405280600281526020017f4e6f0000000000000000000000000000000000000000000000000000000000008152506110f5565b6040518060400160405280600381526020017f59657300000000000000000000000000000000000000000000000000000000008152505b61280b565b6111456040518060400160405280600f81526020017f4e756d626572206f66204d6f6f6e730000000000000000000000000000000000815250611140876060015161278e565b61280b565b6112246040518060400160405280600b81526020017f506c616e65742054797065000000000000000000000000000000000000000000815250600180811115611191576111906135f6565b5b886080015160018111156111a8576111a76135f6565b5b146111e8576040518060400160405280600381526020017f476173000000000000000000000000000000000000000000000000000000000081525061121f565b6040518060400160405280600481526020017f526f636b000000000000000000000000000000000000000000000000000000008152505b61280b565b6112e36040518060400160405280600c81526020017f506c616e657420436f6c6f720000000000000000000000000000000000000000815250730e47A2B3de8c3dC9d7F11952164d73A0c1D9D5aC630d56fe878a60a001516040518263ffffffff1660e01b81526004016112989190613ae3565b600060405180830381865af41580156112b5573d6000803e3d6000fd5b505050506040513d6000823e3d601f19601f820116820180604052508101906112de9190613b9f565b61280b565b6040516020016112f896959493929190613c96565b6040516020818303038152906040529050919050565b60008073ffffffffffffffffffffffffffffffffffffffff168273ffffffffffffffffffffffffffffffffffffffff1603611375576040517f8f4eb60400000000000000000000000000000000000000000000000000000000815260040160405180910390fd5b67ffffffffffffffff600560008473ffffffffffffffffffffffffffffffffffffffff1673ffffffffffffffffffffffffffffffffffffffff16815260200190815260200160002054169050919050565b6113ce61257a565b6113d86000612837565b565b6113e2612e3a565b60007f0000000000000000000000000000000000000000000000000000000000000000836114109190613d86565b9050611457816040518060400160405280600481526020017f73656564000000000000000000000000000000000000000000000000000000008152506001620f42406128fd565b8260000181815250506114a36040518060400160405280600481526020017f7365656400000000000000000000000000000000000000000000000000000000815250836000015161296d565b8260e001516000600781106114bb576114ba613dba565b5b6020020181905250611506816040518060400160405280600a81526020017f706c616e657453697a6500000000000000000000000000000000000000000000815250601e60646128fd565b8260200181815250506115526040518060400160405280600a81526020017f706c616e657453697a6500000000000000000000000000000000000000000000815250836020015161296d565b8260e0015160016007811061156a57611569613dba565b5b602002018190525060046115b7826040518060400160405280600a81526020017f706c616e657454797065000000000000000000000000000000000000000000008152506000600a6128fd565b106115c35760016115c6565b60005b826080019060018111156115dd576115dc6135f6565b5b908160018111156115f1576115f06135f6565b5b8152505061164a6040518060400160405280600a81526020017f706c616e6574547970650000000000000000000000000000000000000000000081525083608001516001811115611645576116446135f6565b5b61296d565b8260e0015160046007811061166257611661613dba565b5b60200201819052506000600181111561167e5761167d6135f6565b5b82608001516001811115611695576116946135f6565b5b1480156116e4575060036116e2826040518060400160405280600881526020017f68617352696e67730000000000000000000000000000000000000000000000008152506000600a6128fd565b105b8260400190151590811515815250506117476040518060400160405280600881526020017f68617352696e6773000000000000000000000000000000000000000000000000815250836040015161173c57600061173f565b60015b60ff1661296d565b8260e0015160026007811061175f5761175e613dba565b5b602002018190525060006117ac826040518060400160405280600881526020017f6e756d4d6f6f6e73000000000000000000000000000000000000000000000000815250600060646128fd565b905060198110156117c7576001836060018181525050611807565b60258110156117e0576002836060018181525050611806565b60288110156117f9576003836060018181525050611805565b60008360600181815250505b5b5b61184a6040518060400160405280600881526020017f6e756d4d6f6f6e73000000000000000000000000000000000000000000000000815250846060015161296d565b8360e0015160036007811061186257611861613dba565b5b6020020181905250506118af816040518060400160405280600781526020017f626173654875650000000000000000000000000000000000000000000000000081525060006101686128fd565b8260a00181815250506118fb6040518060400160405280600781526020017f62617365487565000000000000000000000000000000000000000000000000008152508360a0015161296d565b8260e0015160056007811061191357611912613dba565b5b602002018190525060018081111561192e5761192d6135f6565b5b82608001516001811115611945576119446135f6565b5b14801561199457506003611992826040518060400160405280600881526020017f68617357617465720000000000000000000000000000000000000000000000008152506000600a6128fd565b105b8260c00190151590811515815250506119f76040518060400160405280600881526020017f68617357617465720000000000000000000000000000000000000000000000008152508360c001516119ec5760006119ef565b60015b60ff1661296d565b8260e00151600660078110611a0f57611a0e613dba565b5b602002018190525050919050565b6000600860009054906101000a900473ffffffffffffffffffffffffffffffffffffffff16905090565b611a4f61257a565b80600b8190555050565b606060038054611a6890613aa3565b80601f0160208091040260200160405190810160405280929190818152602001828054611a9490613aa3565b8015611ae15780601f10611ab657610100808354040283529160200191611ae1565b820191906000526020600020905b815481529060010190602001808311611ac457829003601f168201915b5050505050905090565b600960009054906101000a900473ffffffffffffffffffffffffffffffffffffffff1681565b600b5481565b600c60009054906101000a900460ff16611b5d576040517f589ed34b00000000000000000000000000000000000000000000000000000000815260040160405180910390fd5b7f000000000000000000000000000000000000000000000000000000000000000081611b87611dfa565b611b919190613d86565b1115611bc9576040517f52df9fe500000000000000000000000000000000000000000000000000000000815260040160405180910390fd5b80600b54611bd79190613de9565b341015611c10576040517f356680b700000000000000000000000000000000000000000000000000000000815260040160405180910390fd5b611c1a33826129a1565b80600b54611c289190613de9565b341115611cec5760003373ffffffffffffffffffffffffffffffffffffffff1682600b54611c569190613de9565b34611c619190613e2b565b604051611c6d90613e90565b60006040518083038185875af1925050503d8060008114611caa576040519150601f19603f3d011682016040523d82523d6000602084013e611caf565b606091505b5050905080611cea576040517ff0c49d4400000000000000000000000000000000000000000000000000000000815260040160405180910390fd5b505b50565b8060076000611cfc612569565b73ffffffffffffffffffffffffffffffffffffffff1673ffffffffffffffffffffffffffffffffffffffff16815260200190815260200160002060008473ffffffffffffffffffffffffffffffffffffffff1673ffffffffffffffffffffffffffffffffffffffff16815260200190815260200160002060006101000a81548160ff0219169083151502179055508173ffffffffffffffffffffffffffffffffffffffff16611da9612569565b73ffffffffffffffffffffffffffffffffffffffff167f17307eab39ab6107e8899845ad3d59bd9653f200f220920489ca2b5937696c3183604051611dee9190612f76565b60405180910390a35050565b6000611e04612b5c565b905090565b7f000000000000000000000000000000000000000000000000000000000000000081565b611e3561257a565b600c60019054906101000a900460ff1615611e7c576040517f6823b07300000000000000000000000000000000000000000000000000000000815260040160405180910390fd5b80600a60006101000a81548173ffffffffffffffffffffffffffffffffffffffff021916908373ffffffffffffffffffffffffffffffffffffffff16021790555050565b6060611fba8260e00151600060078110611edd57611edc613dba565b5b60200201518360e00151600160078110611efa57611ef9613dba565b5b60200201518460e00151600260078110611f1757611f16613dba565b5b60200201518560e00151600360078110611f3457611f33613dba565b5b60200201518660e00151600460078110611f5157611f50613dba565b5b60200201518760e00151600560078110611f6e57611f6d613dba565b5b60200201518860e00151600660078110611f8b57611f8a613dba565b5b6020020151604051602001611fa69796959493929190613ed6565b604051602081830303815290604052612b6f565b9050919050565b600c60019054906101000a900460ff1681565b611fdf848484610b67565b60008373ffffffffffffffffffffffffffffffffffffffff163b146120415761200a84848484612b84565b612040576040517fd1a57ed600000000000000000000000000000000000000000000000000000000815260040160405180910390fd5b5b50505050565b61204f61257a565b7f0000000000000000000000000000000000000000000000000000000000000000818484905061207f9190613de9565b612087611dfa565b6120919190613d86565b11156120c9576040517f52df9fe500000000000000000000000000000000000000000000000000000000815260040160405180910390fd5b60005b8383905081101561211b576121088484838181106120ed576120ec613dba565b5b905060200201602081019061210291906135ab565b836129a1565b808061211390613f3b565b9150506120cc565b50505050565b606061212c8261250a565b612162576040517feb7d192800000000000000000000000000000000000000000000000000000000815260040160405180910390fd5b600061216d836113da565b9050600061217a82610f3b565b9050600061218783611ec0565b90506000612234600960009054906101000a900473ffffffffffffffffffffffffffffffffffffffff1673ffffffffffffffffffffffffffffffffffffffff1663c7d3625b866040518263ffffffff1660e01b81526004016121e99190613828565b600060405180830381865afa158015612206573d6000803e3d6000fd5b505050506040513d6000823e3d601f19601f8201168201806040525081019061222f9190613ff3565b612b6f565b90506000600a60009054906101000a900473ffffffffffffffffffffffffffffffffffffffff1673ffffffffffffffffffffffffffffffffffffffff1663bf471ba7846040518263ffffffff1660e01b815260040161229391906138d4565b600060405180830381865afa1580156122b0573d6000803e3d6000fd5b505050506040513d6000823e3d601f19601f820116820180604052508101906122d99190613ff3565b905060006122e68861278e565b8383876040516020016122fc94939291906142e8565b60405160208183030381529060405290508060405160200161231e91906143ca565b6040516020818303038152906040529650505050505050919050565b600a60009054906101000a900473ffffffffffffffffffffffffffffffffffffffff1681565b61236861257a565b600c60019054906101000a900460ff16156123af576040517f6823b07300000000000000000000000000000000000000000000000000000000815260040160405180910390fd5b80600960006101000a81548173ffffffffffffffffffffffffffffffffffffffff021916908373ffffffffffffffffffffffffffffffffffffffff16021790555050565b6000600760008473ffffffffffffffffffffffffffffffffffffffff1673ffffffffffffffffffffffffffffffffffffffff16815260200190815260200160002060008373ffffffffffffffffffffffffffffffffffffffff1673ffffffffffffffffffffffffffffffffffffffff16815260200190815260200160002060009054906101000a900460ff16905092915050565b61248f61257a565b600073ffffffffffffffffffffffffffffffffffffffff168173ffffffffffffffffffffffffffffffffffffffff16036124fe576040517f08c379a00000000000000000000000000000000000000000000000000000000081526004016124f59061445e565b60405180910390fd5b61250781612837565b50565b600081612515612571565b11158015612524575060005482105b8015612562575060007c0100000000000000000000000000000000000000000000000000000000600460008581526020019081526020016000205416145b9050919050565b600033905090565b60006001905090565b612582612cd4565b73ffffffffffffffffffffffffffffffffffffffff166125a0611a1d565b73ffffffffffffffffffffffffffffffffffffffff16146125f6576040517f08c379a00000000000000000000000000000000000000000000000000000000081526004016125ed906144ca565b60405180910390fd5b565b60008082905080612607612571565b1161268d5760005481101561268c5760006004600083815260200190815260200160002054905060007c010000000000000000000000000000000000000000000000000000000082160361268a575b60008103612680576004600083600190039350838152602001908152602001600020549050612656565b80925050506126bf565b505b5b6040517fdf2d9b4200000000000000000000000000000000000000000000000000000000815260040160405180910390fd5b919050565b60008060006006600085815260200190815260200160002090508092508254915050915091565b600073ffffffffffffffffffffffffffffffffffffffff8316925073ffffffffffffffffffffffffffffffffffffffff821691508382148383141790509392505050565b50505050565b60008060e883901c905060e861274c868684612cdc565b62ffffff16901b9150509392505050565b600073ffffffffffffffffffffffffffffffffffffffff83169250814260a01b178317905092915050565b50505050565b60606080604051019050602081016040526000815280600019835b6001156127ca578184019350600a81066030018453600a81049050806127a9575b50828203602084039350808452505050919050565b606082826040516020016127f492919061455c565b604051602081830303815290604052905092915050565b606082826040516020016128209291906145f9565b604051602081830303815290604052905092915050565b6000600860009054906101000a900473ffffffffffffffffffffffffffffffffffffffff16905081600860006101000a81548173ffffffffffffffffffffffffffffffffffffffff021916908373ffffffffffffffffffffffffffffffffffffffff1602179055508173ffffffffffffffffffffffffffffffffffffffff168173ffffffffffffffffffffffffffffffffffffffff167f8be0079c531659141344cd1fd0a4f28419497f9722a3daafe3b4186f6b6457e060405160405180910390a35050565b6000806129328561290d8861278e565b60405160200161291e92919061464a565b604051602081830303815290604052612ce5565b905083600185856129439190613e2b565b61294d9190613d86565b82612958919061469d565b6129629190613d86565b915050949350505050565b6060826129798361278e565b60405160200161298a9291906147b2565b604051602081830303815290604052905092915050565b600080549050600082036129e1576040517fb562e8dd00000000000000000000000000000000000000000000000000000000815260040160405180910390fd5b6129ee600084838561272f565b600160406001901b178202600560008573ffffffffffffffffffffffffffffffffffffffff1673ffffffffffffffffffffffffffffffffffffffff16815260200190815260200160002060008282540192505081905550612a6583612a566000866000612735565b612a5f85612d19565b1761275d565b6004600083815260200190815260200160002081905550600080838301905073ffffffffffffffffffffffffffffffffffffffff85169150828260007fddf252ad1be2c89b69c2b068fc378daa952ba7f163c4a11628f55a4df523b3ef600080a4600183015b818114612b0657808360007fddf252ad1be2c89b69c2b068fc378daa952ba7f163c4a11628f55a4df523b3ef600080a4600181019050612acb565b5060008203612b41576040517f2e07630000000000000000000000000000000000000000000000000000000000815260040160405180910390fd5b806000819055505050612b576000848385612788565b505050565b6000612b66612571565b60005403905090565b6060612b7d82600080612d29565b9050919050565b60008373ffffffffffffffffffffffffffffffffffffffff1663150b7a02612baa612569565b8786866040518563ffffffff1660e01b8152600401612bcc94939291906147f7565b6020604051808303816000875af1925050508015612c0857506040513d601f19601f82011682018060405250810190612c059190614858565b60015b612c81573d8060008114612c38576040519150601f19603f3d011682016040523d82523d6000602084013e612c3d565b606091505b506000815103612c79576040517fd1a57ed600000000000000000000000000000000000000000000000000000000815260040160405180910390fd5b805181602001fd5b63150b7a0260e01b7bffffffffffffffffffffffffffffffffffffffffffffffffffffffff1916817bffffffffffffffffffffffffffffffffffffffffffffffffffffffff191614915050949350505050565b600033905090565b60009392505050565b6000612d0f82604051602001612cfb9190614885565b604051602081830303815290604052612e2a565b60001c9050919050565b60006001821460e11b9050919050565b606083518015612e22576003600282010460021b60405192507f4142434445464748494a4b4c4d4e4f505152535455565758595a616263646566601f526102308515027f6768696a6b6c6d6e6f707172737475767778797a303132333435363738392d5f03603f52602083018181015b600115612def576003880197508751603f8160121c1651600053603f81600c1c1651600153603f8160061c1651600253603f8116516003536000518352600483019250818310612de95750612def565b50612d99565b601f19601f82011660405260038406600204613d3d60f01b81840352808715150290506000818403528084038652505050505b509392505050565b6000815160208301209050919050565b60405180610100016040528060008152602001600081526020016000151581526020016000815260200160006001811115612e7857612e776135f6565b5b815260200160008152602001600015158152602001612e95612e9b565b81525090565b6040518060e001604052806007905b6060815260200190600190039081612eaa5790505090565b6000604051905090565b600080fd5b600080fd5b60007fffffffff0000000000000000000000000000000000000000000000000000000082169050919050565b612f0b81612ed6565b8114612f1657600080fd5b50565b600081359050612f2881612f02565b92915050565b600060208284031215612f4457612f43612ecc565b5b6000612f5284828501612f19565b91505092915050565b60008115159050919050565b612f7081612f5b565b82525050565b6000602082019050612f8b6000830184612f67565b92915050565b6000819050919050565b612fa481612f91565b82525050565b6000602082019050612fbf6000830184612f9b565b92915050565b600081519050919050565b600082825260208201905092915050565b60005b83811015612fff578082015181840152602081019050612fe4565b60008484015250505050565b6000601f19601f8301169050919050565b600061302782612fc5565b6130318185612fd0565b9350613041818560208601612fe1565b61304a8161300b565b840191505092915050565b6000602082019050818103600083015261306f818461301c565b905092915050565b61308081612f91565b811461308b57600080fd5b50565b60008135905061309d81613077565b92915050565b6000602082840312156130b9576130b8612ecc565b5b60006130c78482850161308e565b91505092915050565b600073ffffffffffffffffffffffffffffffffffffffff82169050919050565b60006130fb826130d0565b9050919050565b61310b816130f0565b82525050565b60006020820190506131266000830184613102565b92915050565b613135816130f0565b811461314057600080fd5b50565b6000813590506131528161312c565b92915050565b6000806040838503121561316f5761316e612ecc565b5b600061317d85828601613143565b925050602061318e8582860161308e565b9150509250929050565b6131a181612f5b565b81146131ac57600080fd5b50565b6000813590506131be81613198565b92915050565b6000602082840312156131da576131d9612ecc565b5b60006131e8848285016131af565b91505092915050565b60008060006060848603121561320a57613209612ecc565b5b600061321886828701613143565b935050602061322986828701613143565b925050604061323a8682870161308e565b9150509250925092565b600080fd5b7f4e487b7100000000000000000000000000000000000000000000000000000000600052604160045260246000fd5b6132818261300b565b810181811067ffffffffffffffff821117156132a05761329f613249565b5b80604052505050565b60006132b3612ec2565b90506132bf8282613278565b919050565b600080fd5b600281106132d657600080fd5b50565b6000813590506132e8816132c9565b92915050565b600080fd5b600067ffffffffffffffff82111561330e5761330d613249565b5b602082029050919050565b600080fd5b600080fd5b600067ffffffffffffffff82111561333e5761333d613249565b5b6133478261300b565b9050602081019050919050565b82818337600083830152505050565b600061337661337184613323565b6132a9565b9050828152602081018484840111156133925761339161331e565b5b61339d848285613354565b509392505050565b600082601f8301126133ba576133b96132ee565b5b81356133ca848260208601613363565b91505092915050565b60006133e66133e1846132f3565b6132a9565b90508060208402830185811115613400576133ff613319565b5b835b8181101561344757803567ffffffffffffffff811115613425576134246132ee565b5b80860161343289826133a5565b85526020850194505050602081019050613402565b5050509392505050565b600082601f830112613466576134656132ee565b5b60076134738482856133d3565b91505092915050565b6000610100828403121561349357613492613244565b5b61349e6101006132a9565b905060006134ae8482850161308e565b60008301525060206134c28482850161308e565b60208301525060406134d6848285016131af565b60408301525060606134ea8482850161308e565b60608301525060806134fe848285016132d9565b60808301525060a06135128482850161308e565b60a08301525060c0613526848285016131af565b60c08301525060e082013567ffffffffffffffff81111561354a576135496132c4565b5b61355684828501613451565b60e08301525092915050565b60006020828403121561357857613577612ecc565b5b600082013567ffffffffffffffff81111561359657613595612ed1565b5b6135a28482850161347c565b91505092915050565b6000602082840312156135c1576135c0612ecc565b5b60006135cf84828501613143565b91505092915050565b6135e181612f91565b82525050565b6135f081612f5b565b82525050565b7f4e487b7100000000000000000000000000000000000000000000000000000000600052602160045260246000fd5b60028110613636576136356135f6565b5b50565b600081905061364782613625565b919050565b600061365782613639565b9050919050565b6136678161364c565b82525050565b600060079050919050565b600081905092915050565b6000819050919050565b600081519050919050565b600082825260208201905092915050565b60006136b48261368d565b6136be8185613698565b93506136ce818560208601612fe1565b6136d78161300b565b840191505092915050565b60006136ee83836136a9565b905092915050565b6000602082019050919050565b600061370e8261366d565b6137188185613678565b93508360208202850161372a85613683565b8060005b85811015613766578484038952815161374785826136e2565b9450613752836136f6565b925060208a0199505060018101905061372e565b50829750879550505050505092915050565b60006101008301600083015161379160008601826135d8565b5060208301516137a460208601826135d8565b5060408301516137b760408601826135e7565b5060608301516137ca60608601826135d8565b5060808301516137dd608086018261365e565b5060a08301516137f060a08601826135d8565b5060c083015161380360c08601826135e7565b5060e083015184820360e086015261381b8282613703565b9150508091505092915050565b600060208201905081810360008301526138428184613778565b905092915050565b6000806040838503121561386157613860612ecc565b5b600061386f85828601613143565b9250506020613880858286016131af565b9150509250929050565b600082825260208201905092915050565b60006138a68261368d565b6138b0818561388a565b93506138c0818560208601612fe1565b6138c98161300b565b840191505092915050565b600060208201905081810360008301526138ee818461389b565b905092915050565b600080600080608085870312156139105761390f612ecc565b5b600061391e87828801613143565b945050602061392f87828801613143565b93505060406139408782880161308e565b925050606085013567ffffffffffffffff81111561396157613960612ed1565b5b61396d878288016133a5565b91505092959194509250565b600080fd5b60008083601f840112613994576139936132ee565b5b8235905067ffffffffffffffff8111156139b1576139b0613979565b5b6020830191508360208202830111156139cd576139cc613319565b5b9250929050565b6000806000604084860312156139ed576139ec612ecc565b5b600084013567ffffffffffffffff811115613a0b57613a0a612ed1565b5b613a178682870161397e565b93509350506020613a2a8682870161308e565b9150509250925092565b60008060408385031215613a4b57613a4a612ecc565b5b6000613a5985828601613143565b9250506020613a6a85828601613143565b9150509250929050565b7f4e487b7100000000000000000000000000000000000000000000000000000000600052602260045260246000fd5b60006002820490506001821680613abb57607f821691505b602082108103613ace57613acd613a74565b5b50919050565b613add81612f91565b82525050565b6000602082019050613af86000830184613ad4565b92915050565b600067ffffffffffffffff821115613b1957613b18613249565b5b613b228261300b565b9050602081019050919050565b6000613b42613b3d84613afe565b6132a9565b905082815260208101848484011115613b5e57613b5d61331e565b5b613b69848285612fe1565b509392505050565b600082601f830112613b8657613b856132ee565b5b8151613b96848260208601613b2f565b91505092915050565b600060208284031215613bb557613bb4612ecc565b5b600082015167ffffffffffffffff811115613bd357613bd2612ed1565b5b613bdf84828501613b71565b91505092915050565b7f2261747472696275746573223a205b0000000000000000000000000000000000815250565b600081905092915050565b6000613c2482612fc5565b613c2e8185613c0e565b9350613c3e818560208601612fe1565b80840191505092915050565b7f2c00000000000000000000000000000000000000000000000000000000000000815250565b7f5d00000000000000000000000000000000000000000000000000000000000000815250565b6000613ca182613be8565b600f82019150613cb18289613c19565b9150613cbc82613c4a565b600182019150613ccc8288613c19565b9150613cd782613c4a565b600182019150613ce78287613c19565b9150613cf282613c4a565b600182019150613d028286613c19565b9150613d0d82613c4a565b600182019150613d1d8285613c19565b9150613d2882613c4a565b600182019150613d388284613c19565b9150613d4382613c70565b600182019150819050979650505050505050565b7f4e487b7100000000000000000000000000000000000000000000000000000000600052601160045260246000fd5b6000613d9182612f91565b9150613d9c83612f91565b9250828201905080821115613db457613db3613d57565b5b92915050565b7f4e487b7100000000000000000000000000000000000000000000000000000000600052603260045260246000fd5b6000613df482612f91565b9150613dff83612f91565b9250828202613e0d81612f91565b91508282048414831517613e2457613e23613d57565b5b5092915050565b6000613e3682612f91565b9150613e4183612f91565b9250828203905081811115613e5957613e58613d57565b5b92915050565b600081905092915050565b50565b6000613e7a600083613e5f565b9150613e8582613e6a565b600082019050919050565b6000613e9b82613e6d565b9150819050919050565b6000613eb08261368d565b613eba8185613e5f565b9350613eca818560208601612fe1565b80840191505092915050565b6000613ee2828a613ea5565b9150613eee8289613ea5565b9150613efa8288613ea5565b9150613f068287613ea5565b9150613f128286613ea5565b9150613f1e8285613ea5565b9150613f2a8284613ea5565b915081905098975050505050505050565b6000613f4682612f91565b91507fffffffffffffffffffffffffffffffffffffffffffffffffffffffffffffffff8203613f7857613f77613d57565b5b600182019050919050565b6000613f96613f9184613323565b6132a9565b905082815260208101848484011115613fb257613fb161331e565b5b613fbd848285612fe1565b509392505050565b600082601f830112613fda57613fd96132ee565b5b8151613fea848260208601613f83565b91505092915050565b60006020828403121561400957614008612ecc565b5b600082015167ffffffffffffffff81111561402757614026612ed1565b5b61403384828501613fc5565b91505092915050565b7f7b226e616d65223a220000000000000000000000000000000000000000000000600082015250565b6000614072600983613c0e565b915061407d8261403c565b600982019050919050565b7f4574686572506c616e6574202300000000000000000000000000000000000000600082015250565b60006140be600d83613c0e565b91506140c982614088565b600d82019050919050565b7f222c20226465736372697074696f6e223a220000000000000000000000000000600082015250565b600061410a601283613c0e565b9150614115826140d4565b601282019050919050565b7f46756c6c79206f6e2d636861696e2c2070726f6365647572616c6c792067656e60008201527f6572617465642c20334420706c616e6574732e00000000000000000000000000602082015250565b600061417c603383613c0e565b915061418782614120565b603382019050919050565b7f222c22696d616765223a22646174613a696d6167652f7376672b786d6c3b626160008201527f736536342c000000000000000000000000000000000000000000000000000000602082015250565b60006141ee602583613c0e565b91506141f982614192565b602582019050919050565b7f222c22616e696d6174696f6e5f75726c223a2200000000000000000000000000600082015250565b600061423a601383613c0e565b915061424582614204565b601382019050919050565b7f222c000000000000000000000000000000000000000000000000000000000000600082015250565b6000614286600283613c0e565b915061429182614250565b600282019050919050565b7f7d00000000000000000000000000000000000000000000000000000000000000600082015250565b60006142d2600183613c0e565b91506142dd8261429c565b600182019050919050565b60006142f382614065565b91506142fe826140b1565b915061430a8287613c19565b9150614315826140fd565b91506143208261416f565b915061432b826141e1565b91506143378286613c19565b91506143428261422d565b915061434e8285613ea5565b915061435982614279565b91506143658284613c19565b9150614370826142c5565b915081905095945050505050565b7f646174613a6170706c69636174696f6e2f6a736f6e2c00000000000000000000600082015250565b60006143b4601683613c0e565b91506143bf8261437e565b601682019050919050565b60006143d5826143a7565b91506143e18284613ea5565b915081905092915050565b7f4f776e61626c653a206e6577206f776e657220697320746865207a65726f206160008201527f6464726573730000000000000000000000000000000000000000000000000000602082015250565b6000614448602683612fd0565b9150614453826143ec565b604082019050919050565b600060208201905081810360008301526144778161443b565b9050919050565b7f4f776e61626c653a2063616c6c6572206973206e6f7420746865206f776e6572600082015250565b60006144b4602083612fd0565b91506144bf8261447e565b602082019050919050565b600060208201905081810360008301526144e3816144a7565b9050919050565b7f7b2274726169745f74797065223a220000000000000000000000000000000000815250565b7f222c2276616c7565223a00000000000000000000000000000000000000000000815250565b7f7d00000000000000000000000000000000000000000000000000000000000000815250565b6000614567826144ea565b600f820191506145778285613c19565b915061458282614510565b600a820191506145928284613c19565b915061459d82614536565b6001820191508190509392505050565b7f222c2276616c7565223a22000000000000000000000000000000000000000000815250565b7f227d000000000000000000000000000000000000000000000000000000000000815250565b6000614604826144ea565b600f820191506146148285613c19565b915061461f826145ad565b600b8201915061462f8284613c19565b915061463a826145d3565b6002820191508190509392505050565b60006146568285613c19565b91506146628284613c19565b91508190509392505050565b7f4e487b7100000000000000000000000000000000000000000000000000000000600052601260045260246000fd5b60006146a882612f91565b91506146b383612f91565b9250826146c3576146c261466e565b5b828206905092915050565b7f7661722000000000000000000000000000000000000000000000000000000000600082015250565b6000614704600483613c0e565b915061470f826146ce565b600482019050919050565b7f3d00000000000000000000000000000000000000000000000000000000000000600082015250565b6000614750600183613c0e565b915061475b8261471a565b600182019050919050565b7f3b00000000000000000000000000000000000000000000000000000000000000600082015250565b600061479c600183613c0e565b91506147a782614766565b600182019050919050565b60006147bd826146f7565b91506147c98285613ea5565b91506147d482614743565b91506147e08284613c19565b91506147eb8261478f565b91508190509392505050565b600060808201905061480c6000830187613102565b6148196020830186613102565b6148266040830185612f9b565b8181036060830152614838818461389b565b905095945050505050565b60008151905061485281612f02565b92915050565b60006020828403121561486e5761486d612ecc565b5b600061487c84828501614843565b91505092915050565b60006148918284613c19565b91508190509291505056fea264697066735822122086b5c7449e29e8de509c70ef7a3f2fac4937ae0790460649313afd14a874a0b564736f6c63430008120033",
  "deployedBytecode": "0x60806040526004361061020f5760003560e01c806391b7f5ed11610118578063afbfbaa0116100a0578063c87b56dd1161006f578063c87b56dd14610729578063d67c52eb14610766578063d949bc5f14610791578063e985e9c5146107ba578063f2fde38b146107f75761020f565b8063afbfbaa014610689578063b3f05b97146106c6578063b88d4fde146106f1578063c204642c1461070d5761020f565b8063a0712d68116100e7578063a0712d68146105c5578063a22cb465146105e1578063a2309ff81461060a578063a3ec191a14610635578063a556f60f146106605761020f565b806391b7f5ed1461051b57806395d89b411461054457806399e8fa261461056f578063a035b1fe1461059a5761020f565b806342842e0e1161019b57806366d76b2c1161016a57806366d76b2c1461042257806370a082311461045f578063715018a61461049c5780637607b6db146104b35780638da5cb5b146104f05761020f565b806342842e0e1461038757806347535d7b146103a35780634bb278f3146103ce5780636352211e146103e55761020f565b8063095ea7b3116101e2578063095ea7b3146102e457806318160ddd146103005780631f85e3ca1461032b57806323b872dd146103545780633ccfd60b146103705761020f565b806301ffc9a714610214578063047fc9aa1461025157806306fdde031461027c578063081812fc146102a7575b600080fd5b34801561022057600080fd5b5061023b60048036038101906102369190612f2e565b610820565b6040516102489190612f76565b60405180910390f35b34801561025d57600080fd5b506102666108b2565b6040516102739190612faa565b60405180910390f35b34801561028857600080fd5b506102916108d6565b60405161029e9190613055565b60405180910390f35b3480156102b357600080fd5b506102ce60048036038101906102c991906130a3565b610968565b6040516102db9190613111565b60405180910390f35b6102fe60048036038101906102f99190613158565b6109e7565b005b34801561030c57600080fd5b50610315610b2b565b6040516103229190612faa565b60405180910390f35b34801561033757600080fd5b50610352600480360381019061034d91906131c4565b610b42565b005b61036e600480360381019061036991906131f1565b610b67565b005b34801561037c57600080fd5b50610385610e89565b005b6103a1600480360381019061039c91906131f1565b610ed1565b005b3480156103af57600080fd5b506103b8610ef1565b6040516103c59190612f76565b60405180910390f35b3480156103da57600080fd5b506103e3610f04565b005b3480156103f157600080fd5b5061040c600480360381019061040791906130a3565b610f29565b6040516104199190613111565b60405180910390f35b34801561042e57600080fd5b5061044960048036038101906104449190613562565b610f3b565b6040516104569190613055565b60405180910390f35b34801561046b57600080fd5b50610486600480360381019061048191906135ab565b61130e565b6040516104939190612faa565b60405180910390f35b3480156104a857600080fd5b506104b16113c6565b005b3480156104bf57600080fd5b506104da60048036038101906104d591906130a3565b6113da565b6040516104e79190613828565b60405180910390f35b3480156104fc57600080fd5b50610505611a1d565b6040516105129190613111565b60405180910390f35b34801561052757600080fd5b50610542600480360381019061053d91906130a3565b611a47565b005b34801561055057600080fd5b50610559611a59565b6040516105669190613055565b60405180910390f35b34801561057b57600080fd5b50610584611aeb565b6040516105919190613111565b60405180910390f35b3480156105a657600080fd5b506105af611b11565b6040516105bc9190612faa565b60405180910390f35b6105df60048036038101906105da91906130a3565b611b17565b005b3480156105ed57600080fd5b506106086004803603810190610603919061384a565b611cef565b005b34801561061657600080fd5b5061061f611dfa565b60405161062c9190612faa565b60405180910390f35b34801561064157600080fd5b5061064a611e09565b6040516106579190612faa565b60405180910390f35b34801561066c57600080fd5b50610687600480360381019061068291906135ab565b611e2d565b005b34801561069557600080fd5b506106b060048036038101906106ab9190613562565b611ec0565b6040516106bd91906138d4565b60405180910390f35b3480156106d257600080fd5b506106db611fc1565b6040516106e89190612f76565b60405180910390f35b61070b600480360381019061070691906138f6565b611fd4565b005b610727600480360381019061072291906139d4565b612047565b005b34801561073557600080fd5b50610750600480360381019061074b91906130a3565b612121565b60405161075d9190613055565b60405180910390f35b34801561077257600080fd5b5061077b61233a565b6040516107889190613111565b60405180910390f35b34801561079d57600080fd5b506107b860048036038101906107b391906135ab565b612360565b005b3480156107c657600080fd5b506107e160048036038101906107dc9190613a34565b6123f3565b6040516107ee9190612f76565b60405180910390f35b34801561080357600080fd5b5061081e600480360381019061081991906135ab565b612487565b005b60006301ffc9a760e01b827bffffffffffffffffffffffffffffffffffffffffffffffffffffffff1916148061087b57506380ac58cd60e01b827bffffffffffffffffffffffffffffffffffffffffffffffffffffffff1916145b806108ab5750635b5e139f60e01b827bffffffffffffffffffffffffffffffffffffffffffffffffffffffff1916145b9050919050565b7f000000000000000000000000000000000000000000000000000000000000000081565b6060600280546108e590613aa3565b80601f016020809104026020016040519081016040528092919081815260200182805461091190613aa3565b801561095e5780601f106109335761010080835404028352916020019161095e565b820191906000526020600020905b81548152906001019060200180831161094157829003601f168201915b5050505050905090565b60006109738261250a565b6109a9576040517fcf4700e400000000000000000000000000000000000000000000000000000000815260040160405180910390fd5b6006600083815260200190815260200160002060000160009054906101000a900473ffffffffffffffffffffffffffffffffffffffff169050919050565b60006109f282610f29565b90508073ffffffffffffffffffffffffffffffffffffffff16610a13612569565b73ffffffffffffffffffffffffffffffffffffffff1614610a7657610a3f81610a3a612569565b6123f3565b610a75576040517fcfb3b94200000000000000000000000000000000000000000000000000000000815260040160405180910390fd5b5b826006600084815260200190815260200160002060000160006101000a81548173ffffffffffffffffffffffffffffffffffffffff021916908373ffffffffffffffffffffffffffffffffffffffff160217905550818373ffffffffffffffffffffffffffffffffffffffff168273ffffffffffffffffffffffffffffffffffffffff167f8c5be1e5ebec7d5bd14f71427d1e84f3dd0314c0f7b2291e5b200ac8c7c3b92560405160405180910390a4505050565b6000610b35612571565b6001546000540303905090565b610b4a61257a565b80600c60006101000a81548160ff02191690831515021790555050565b6000610b72826125f8565b90508373ffffffffffffffffffffffffffffffffffffffff168173ffffffffffffffffffffffffffffffffffffffff1614610bd9576040517fa114810000000000000000000000000000000000000000000000000000000000815260040160405180910390fd5b600080610be5846126c4565b91509150610bfb8187610bf6612569565b6126eb565b610c4757610c1086610c0b612569565b6123f3565b610c46576040517f59c896be00000000000000000000000000000000000000000000000000000000815260040160405180910390fd5b5b600073ffffffffffffffffffffffffffffffffffffffff168573ffffffffffffffffffffffffffffffffffffffff1603610cad576040517fea553b3400000000000000000000000000000000000000000000000000000000815260040160405180910390fd5b610cba868686600161272f565b8015610cc557600082555b600560008773ffffffffffffffffffffffffffffffffffffffff1673ffffffffffffffffffffffffffffffffffffffff168152602001908152602001600020600081546001900391905081905550600560008673ffffffffffffffffffffffffffffffffffffffff1673ffffffffffffffffffffffffffffffffffffffff1681526020019081526020016000206000815460010191905081905550610d9385610d6f888887612735565b7c02000000000000000000000000000000000000000000000000000000001761275d565b600460008681526020019081526020016000208190555060007c0200000000000000000000000000000000000000000000000000000000841603610e195760006001850190506000600460008381526020019081526020016000205403610e17576000548114610e16578360046000838152602001908152602001600020819055505b5b505b838573ffffffffffffffffffffffffffffffffffffffff168773ffffffffffffffffffffffffffffffffffffffff167fddf252ad1be2c89b69c2b068fc378daa952ba7f163c4a11628f55a4df523b3ef60405160405180910390a4610e818686866001612788565b505050505050565b610e9161257a565b3373ffffffffffffffffffffffffffffffffffffffff166108fc479081150290604051600060405180830381858888f19350505050610ecf57600080fd5b565b610eec83838360405180602001604052806000815250611fd4565b505050565b600c60009054906101000a900460ff1681565b610f0c61257a565b6001600c60016101000a81548160ff021916908315150217905550565b6000610f34826125f8565b9050919050565b6060610f886040518060400160405280600b81526020017f506c616e65742053697a65000000000000000000000000000000000000000000815250610f83846020015161278e565b6127df565b6110416040518060400160405280600981526020017f4861732052696e677300000000000000000000000000000000000000000000008152508460400151611005576040518060400160405280600281526020017f4e6f00000000000000000000000000000000000000000000000000000000000081525061103c565b6040518060400160405280600381526020017f59657300000000000000000000000000000000000000000000000000000000008152505b61280b565b6110fa6040518060400160405280600981526020017f48617320576174657200000000000000000000000000000000000000000000008152508560c001516110be576040518060400160405280600281526020017f4e6f0000000000000000000000000000000000000000000000000000000000008152506110f5565b6040518060400160405280600381526020017f59657300000000000000000000000000000000000000000000000000000000008152505b61280b565b6111456040518060400160405280600f81526020017f4e756d626572206f66204d6f6f6e730000000000000000000000000000000000815250611140876060015161278e565b61280b565b6112246040518060400160405280600b81526020017f506c616e65742054797065000000000000000000000000000000000000000000815250600180811115611191576111906135f6565b5b886080015160018111156111a8576111a76135f6565b5b146111e8576040518060400160405280600381526020017f476173000000000000000000000000000000000000000000000000000000000081525061121f565b6040518060400160405280600481526020017f526f636b000000000000000000000000000000000000000000000000000000008152505b61280b565b6112e36040518060400160405280600c81526020017f506c616e657420436f6c6f72000000000000000000000000000000000000000081525073__$5187c88d6fd7cbb2d86814aea483adb806$__630d56fe878a60a001516040518263ffffffff1660e01b81526004016112989190613ae3565b600060405180830381865af41580156112b5573d6000803e3d6000fd5b505050506040513d6000823e3d601f19601f820116820180604052508101906112de9190613b9f565b61280b565b6040516020016112f896959493929190613c96565b6040516020818303038152906040529050919050565b60008073ffffffffffffffffffffffffffffffffffffffff168273ffffffffffffffffffffffffffffffffffffffff1603611375576040517f8f4eb60400000000000000000000000000000000000000000000000000000000815260040160405180910390fd5b67ffffffffffffffff600560008473ffffffffffffffffffffffffffffffffffffffff1673ffffffffffffffffffffffffffffffffffffffff16815260200190815260200160002054169050919050565b6113ce61257a565b6113d86000612837565b565b6113e2612e3a565b60007f0000000000000000000000000000000000000000000000000000000000000000836114109190613d86565b9050611457816040518060400160405280600481526020017f73656564000000000000000000000000000000000000000000000000000000008152506001620f42406128fd565b8260000181815250506114a36040518060400160405280600481526020017f7365656400000000000000000000000000000000000000000000000000000000815250836000015161296d565b8260e001516000600781106114bb576114ba613dba565b5b6020020181905250611506816040518060400160405280600a81526020017f706c616e657453697a6500000000000000000000000000000000000000000000815250601e60646128fd565b8260200181815250506115526040518060400160405280600a81526020017f706c616e657453697a6500000000000000000000000000000000000000000000815250836020015161296d565b8260e0015160016007811061156a57611569613dba565b5b602002018190525060046115b7826040518060400160405280600a81526020017f706c616e657454797065000000000000000000000000000000000000000000008152506000600a6128fd565b106115c35760016115c6565b60005b826080019060018111156115dd576115dc6135f6565b5b908160018111156115f1576115f06135f6565b5b8152505061164a6040518060400160405280600a81526020017f706c616e6574547970650000000000000000000000000000000000000000000081525083608001516001811115611645576116446135f6565b5b61296d565b8260e0015160046007811061166257611661613dba565b5b60200201819052506000600181111561167e5761167d6135f6565b5b82608001516001811115611695576116946135f6565b5b1480156116e4575060036116e2826040518060400160405280600881526020017f68617352696e67730000000000000000000000000000000000000000000000008152506000600a6128fd565b105b8260400190151590811515815250506117476040518060400160405280600881526020017f68617352696e6773000000000000000000000000000000000000000000000000815250836040015161173c57600061173f565b60015b60ff1661296d565b8260e0015160026007811061175f5761175e613dba565b5b602002018190525060006117ac826040518060400160405280600881526020017f6e756d4d6f6f6e73000000000000000000000000000000000000000000000000815250600060646128fd565b905060198110156117c7576001836060018181525050611807565b60258110156117e0576002836060018181525050611806565b60288110156117f9576003836060018181525050611805565b60008360600181815250505b5b5b61184a6040518060400160405280600881526020017f6e756d4d6f6f6e73000000000000000000000000000000000000000000000000815250846060015161296d565b8360e0015160036007811061186257611861613dba565b5b6020020181905250506118af816040518060400160405280600781526020017f626173654875650000000000000000000000000000000000000000000000000081525060006101686128fd565b8260a00181815250506118fb6040518060400160405280600781526020017f62617365487565000000000000000000000000000000000000000000000000008152508360a0015161296d565b8260e0015160056007811061191357611912613dba565b5b602002018190525060018081111561192e5761192d6135f6565b5b82608001516001811115611945576119446135f6565b5b14801561199457506003611992826040518060400160405280600881526020017f68617357617465720000000000000000000000000000000000000000000000008152506000600a6128fd565b105b8260c00190151590811515815250506119f76040518060400160405280600881526020017f68617357617465720000000000000000000000000000000000000000000000008152508360c001516119ec5760006119ef565b60015b60ff1661296d565b8260e00151600660078110611a0f57611a0e613dba565b5b602002018190525050919050565b6000600860009054906101000a900473ffffffffffffffffffffffffffffffffffffffff16905090565b611a4f61257a565b80600b8190555050565b606060038054611a6890613aa3565b80601f0160208091040260200160405190810160405280929190818152602001828054611a9490613aa3565b8015611ae15780601f10611ab657610100808354040283529160200191611ae1565b820191906000526020600020905b815481529060010190602001808311611ac457829003601f168201915b5050505050905090565b600960009054906101000a900473ffffffffffffffffffffffffffffffffffffffff1681565b600b5481565b600c60009054906101000a900460ff16611b5d576040517f589ed34b00000000000000000000000000000000000000000000000000000000815260040160405180910390fd5b7f000000000000000000000000000000000000000000000000000000000000000081611b87611dfa565b611b919190613d86565b1115611bc9576040517f52df9fe500000000000000000000000000000000000000000000000000000000815260040160405180910390fd5b80600b54611bd79190613de9565b341015611c10576040517f356680b700000000000000000000000000000000000000000000000000000000815260040160405180910390fd5b611c1a33826129a1565b80600b54611c289190613de9565b341115611cec5760003373ffffffffffffffffffffffffffffffffffffffff1682600b54611c569190613de9565b34611c619190613e2b565b604051611c6d90613e90565b60006040518083038185875af1925050503d8060008114611caa576040519150601f19603f3d011682016040523d82523d6000602084013e611caf565b606091505b5050905080611cea576040517ff0c49d4400000000000000000000000000000000000000000000000000000000815260040160405180910390fd5b505b50565b8060076000611cfc612569565b73ffffffffffffffffffffffffffffffffffffffff1673ffffffffffffffffffffffffffffffffffffffff16815260200190815260200160002060008473ffffffffffffffffffffffffffffffffffffffff1673ffffffffffffffffffffffffffffffffffffffff16815260200190815260200160002060006101000a81548160ff0219169083151502179055508173ffffffffffffffffffffffffffffffffffffffff16611da9612569565b73ffffffffffffffffffffffffffffffffffffffff167f17307eab39ab6107e8899845ad3d59bd9653f200f220920489ca2b5937696c3183604051611dee9190612f76565b60405180910390a35050565b6000611e04612b5c565b905090565b7f000000000000000000000000000000000000000000000000000000000000000081565b611e3561257a565b600c60019054906101000a900460ff1615611e7c576040517f6823b07300000000000000000000000000000000000000000000000000000000815260040160405180910390fd5b80600a60006101000a81548173ffffffffffffffffffffffffffffffffffffffff021916908373ffffffffffffffffffffffffffffffffffffffff16021790555050565b6060611fba8260e00151600060078110611edd57611edc613dba565b5b60200201518360e00151600160078110611efa57611ef9613dba565b5b60200201518460e00151600260078110611f1757611f16613dba565b5b60200201518560e00151600360078110611f3457611f33613dba565b5b60200201518660e00151600460078110611f5157611f50613dba565b5b60200201518760e00151600560078110611f6e57611f6d613dba565b5b60200201518860e00151600660078110611f8b57611f8a613dba565b5b6020020151604051602001611fa69796959493929190613ed6565b604051602081830303815290604052612b6f565b9050919050565b600c60019054906101000a900460ff1681565b611fdf848484610b67565b60008373ffffffffffffffffffffffffffffffffffffffff163b146120415761200a84848484612b84565b612040576040517fd1a57ed600000000000000000000000000000000000000000000000000000000815260040160405180910390fd5b5b50505050565b61204f61257a565b7f0000000000000000000000000000000000000000000000000000000000000000818484905061207f9190613de9565b612087611dfa565b6120919190613d86565b11156120c9576040517f52df9fe500000000000000000000000000000000000000000000000000000000815260040160405180910390fd5b60005b8383905081101561211b576121088484838181106120ed576120ec613dba565b5b905060200201602081019061210291906135ab565b836129a1565b808061211390613f3b565b9150506120cc565b50505050565b606061212c8261250a565b612162576040517feb7d192800000000000000000000000000000000000000000000000000000000815260040160405180910390fd5b600061216d836113da565b9050600061217a82610f3b565b9050600061218783611ec0565b90506000612234600960009054906101000a900473ffffffffffffffffffffffffffffffffffffffff1673ffffffffffffffffffffffffffffffffffffffff1663c7d3625b866040518263ffffffff1660e01b81526004016121e99190613828565b600060405180830381865afa158015612206573d6000803e3d6000fd5b505050506040513d6000823e3d601f19601f8201168201806040525081019061222f9190613ff3565b612b6f565b90506000600a60009054906101000a900473ffffffffffffffffffffffffffffffffffffffff1673ffffffffffffffffffffffffffffffffffffffff1663bf471ba7846040518263ffffffff1660e01b815260040161229391906138d4565b600060405180830381865afa1580156122b0573d6000803e3d6000fd5b505050506040513d6000823e3d601f19601f820116820180604052508101906122d99190613ff3565b905060006122e68861278e565b8383876040516020016122fc94939291906142e8565b60405160208183030381529060405290508060405160200161231e91906143ca565b6040516020818303038152906040529650505050505050919050565b600a60009054906101000a900473ffffffffffffffffffffffffffffffffffffffff1681565b61236861257a565b600c60019054906101000a900460ff16156123af576040517f6823b07300000000000000000000000000000000000000000000000000000000815260040160405180910390fd5b80600960006101000a81548173ffffffffffffffffffffffffffffffffffffffff021916908373ffffffffffffffffffffffffffffffffffffffff16021790555050565b6000600760008473ffffffffffffffffffffffffffffffffffffffff1673ffffffffffffffffffffffffffffffffffffffff16815260200190815260200160002060008373ffffffffffffffffffffffffffffffffffffffff1673ffffffffffffffffffffffffffffffffffffffff16815260200190815260200160002060009054906101000a900460ff16905092915050565b61248f61257a565b600073ffffffffffffffffffffffffffffffffffffffff168173ffffffffffffffffffffffffffffffffffffffff16036124fe576040517f08c379a00000000000000000000000000000000000000000000000000000000081526004016124f59061445e565b60405180910390fd5b61250781612837565b50565b600081612515612571565b11158015612524575060005482105b8015612562575060007c0100000000000000000000000000000000000000000000000000000000600460008581526020019081526020016000205416145b9050919050565b600033905090565b60006001905090565b612582612cd4565b73ffffffffffffffffffffffffffffffffffffffff166125a0611a1d565b73ffffffffffffffffffffffffffffffffffffffff16146125f6576040517f08c379a00000000000000000000000000000000000000000000000000000000081526004016125ed906144ca565b60405180910390fd5b565b60008082905080612607612571565b1161268d5760005481101561268c5760006004600083815260200190815260200160002054905060007c010000000000000000000000000000000000000000000000000000000082160361268a575b60008103612680576004600083600190039350838152602001908152602001600020549050612656565b80925050506126bf565b505b5b6040517fdf2d9b4200000000000000000000000000000000000000000000000000000000815260040160405180910390fd5b919050565b60008060006006600085815260200190815260200160002090508092508254915050915091565b600073ffffffffffffffffffffffffffffffffffffffff8316925073ffffffffffffffffffffffffffffffffffffffff821691508382148383141790509392505050565b50505050565b60008060e883901c905060e861274c868684612cdc565b62ffffff16901b9150509392505050565b600073ffffffffffffffffffffffffffffffffffffffff83169250814260a01b178317905092915050565b50505050565b60606080604051019050602081016040526000815280600019835b6001156127ca578184019350600a81066030018453600a81049050806127a9575b50828203602084039350808452505050919050565b606082826040516020016127f492919061455c565b604051602081830303815290604052905092915050565b606082826040516020016128209291906145f9565b604051602081830303815290604052905092915050565b6000600860009054906101000a900473ffffffffffffffffffffffffffffffffffffffff16905081600860006101000a81548173ffffffffffffffffffffffffffffffffffffffff021916908373ffffffffffffffffffffffffffffffffffffffff1602179055508173ffffffffffffffffffffffffffffffffffffffff168173ffffffffffffffffffffffffffffffffffffffff167f8be0079c531659141344cd1fd0a4f28419497f9722a3daafe3b4186f6b6457e060405160405180910390a35050565b6000806129328561290d8861278e565b60405160200161291e92919061464a565b604051602081830303815290604052612ce5565b905083600185856129439190613e2b565b61294d9190613d86565b82612958919061469d565b6129629190613d86565b915050949350505050565b6060826129798361278e565b60405160200161298a9291906147b2565b604051602081830303815290604052905092915050565b600080549050600082036129e1576040517fb562e8dd00000000000000000000000000000000000000000000000000000000815260040160405180910390fd5b6129ee600084838561272f565b600160406001901b178202600560008573ffffffffffffffffffffffffffffffffffffffff1673ffffffffffffffffffffffffffffffffffffffff16815260200190815260200160002060008282540192505081905550612a6583612a566000866000612735565b612a5f85612d19565b1761275d565b6004600083815260200190815260200160002081905550600080838301905073ffffffffffffffffffffffffffffffffffffffff85169150828260007fddf252ad1be2c89b69c2b068fc378daa952ba7f163c4a11628f55a4df523b3ef600080a4600183015b818114612b0657808360007fddf252ad1be2c89b69c2b068fc378daa952ba7f163c4a11628f55a4df523b3ef600080a4600181019050612acb565b5060008203612b41576040517f2e07630000000000000000000000000000000000000000000000000000000000815260040160405180910390fd5b806000819055505050612b576000848385612788565b505050565b6000612b66612571565b60005403905090565b6060612b7d82600080612d29565b9050919050565b60008373ffffffffffffffffffffffffffffffffffffffff1663150b7a02612baa612569565b8786866040518563ffffffff1660e01b8152600401612bcc94939291906147f7565b6020604051808303816000875af1925050508015612c0857506040513d601f19601f82011682018060405250810190612c059190614858565b60015b612c81573d8060008114612c38576040519150601f19603f3d011682016040523d82523d6000602084013e612c3d565b606091505b506000815103612c79576040517fd1a57ed600000000000000000000000000000000000000000000000000000000815260040160405180910390fd5b805181602001fd5b63150b7a0260e01b7bffffffffffffffffffffffffffffffffffffffffffffffffffffffff1916817bffffffffffffffffffffffffffffffffffffffffffffffffffffffff191614915050949350505050565b600033905090565b60009392505050565b6000612d0f82604051602001612cfb9190614885565b604051602081830303815290604052612e2a565b60001c9050919050565b60006001821460e11b9050919050565b606083518015612e22576003600282010460021b60405192507f4142434445464748494a4b4c4d4e4f505152535455565758595a616263646566601f526102308515027f6768696a6b6c6d6e6f707172737475767778797a303132333435363738392d5f03603f52602083018181015b600115612def576003880197508751603f8160121c1651600053603f81600c1c1651600153603f8160061c1651600253603f8116516003536000518352600483019250818310612de95750612def565b50612d99565b601f19601f82011660405260038406600204613d3d60f01b81840352808715150290506000818403528084038652505050505b509392505050565b6000815160208301209050919050565b60405180610100016040528060008152602001600081526020016000151581526020016000815260200160006001811115612e7857612e776135f6565b5b815260200160008152602001600015158152602001612e95612e9b565b81525090565b6040518060e001604052806007905b6060815260200190600190039081612eaa5790505090565b6000604051905090565b600080fd5b600080fd5b60007fffffffff0000000000000000000000000000000000000000000000000000000082169050919050565b612f0b81612ed6565b8114612f1657600080fd5b50565b600081359050612f2881612f02565b92915050565b600060208284031215612f4457612f43612ecc565b5b6000612f5284828501612f19565b91505092915050565b60008115159050919050565b612f7081612f5b565b82525050565b6000602082019050612f8b6000830184612f67565b92915050565b6000819050919050565b612fa481612f91565b82525050565b6000602082019050612fbf6000830184612f9b565b92915050565b600081519050919050565b600082825260208201905092915050565b60005b83811015612fff578082015181840152602081019050612fe4565b60008484015250505050565b6000601f19601f8301169050919050565b600061302782612fc5565b6130318185612fd0565b9350613041818560208601612fe1565b61304a8161300b565b840191505092915050565b6000602082019050818103600083015261306f818461301c565b905092915050565b61308081612f91565b811461308b57600080fd5b50565b60008135905061309d81613077565b92915050565b6000602082840312156130b9576130b8612ecc565b5b60006130c78482850161308e565b91505092915050565b600073ffffffffffffffffffffffffffffffffffffffff82169050919050565b60006130fb826130d0565b9050919050565b61310b816130f0565b82525050565b60006020820190506131266000830184613102565b92915050565b613135816130f0565b811461314057600080fd5b50565b6000813590506131528161312c565b92915050565b6000806040838503121561316f5761316e612ecc565b5b600061317d85828601613143565b925050602061318e8582860161308e565b9150509250929050565b6131a181612f5b565b81146131ac57600080fd5b50565b6000813590506131be81613198565b92915050565b6000602082840312156131da576131d9612ecc565b5b60006131e8848285016131af565b91505092915050565b60008060006060848603121561320a57613209612ecc565b5b600061321886828701613143565b935050602061322986828701613143565b925050604061323a8682870161308e565b9150509250925092565b600080fd5b7f4e487b7100000000000000000000000000000000000000000000000000000000600052604160045260246000fd5b6132818261300b565b810181811067ffffffffffffffff821117156132a05761329f613249565b5b80604052505050565b60006132b3612ec2565b90506132bf8282613278565b919050565b600080fd5b600281106132d657600080fd5b50565b6000813590506132e8816132c9565b92915050565b600080fd5b600067ffffffffffffffff82111561330e5761330d613249565b5b602082029050919050565b600080fd5b600080fd5b600067ffffffffffffffff82111561333e5761333d613249565b5b6133478261300b565b9050602081019050919050565b82818337600083830152505050565b600061337661337184613323565b6132a9565b9050828152602081018484840111156133925761339161331e565b5b61339d848285613354565b509392505050565b600082601f8301126133ba576133b96132ee565b5b81356133ca848260208601613363565b91505092915050565b60006133e66133e1846132f3565b6132a9565b90508060208402830185811115613400576133ff613319565b5b835b8181101561344757803567ffffffffffffffff811115613425576134246132ee565b5b80860161343289826133a5565b85526020850194505050602081019050613402565b5050509392505050565b600082601f830112613466576134656132ee565b5b60076134738482856133d3565b91505092915050565b6000610100828403121561349357613492613244565b5b61349e6101006132a9565b905060006134ae8482850161308e565b60008301525060206134c28482850161308e565b60208301525060406134d6848285016131af565b60408301525060606134ea8482850161308e565b60608301525060806134fe848285016132d9565b60808301525060a06135128482850161308e565b60a08301525060c0613526848285016131af565b60c08301525060e082013567ffffffffffffffff81111561354a576135496132c4565b5b61355684828501613451565b60e08301525092915050565b60006020828403121561357857613577612ecc565b5b600082013567ffffffffffffffff81111561359657613595612ed1565b5b6135a28482850161347c565b91505092915050565b6000602082840312156135c1576135c0612ecc565b5b60006135cf84828501613143565b91505092915050565b6135e181612f91565b82525050565b6135f081612f5b565b82525050565b7f4e487b7100000000000000000000000000000000000000000000000000000000600052602160045260246000fd5b60028110613636576136356135f6565b5b50565b600081905061364782613625565b919050565b600061365782613639565b9050919050565b6136678161364c565b82525050565b600060079050919050565b600081905092915050565b6000819050919050565b600081519050919050565b600082825260208201905092915050565b60006136b48261368d565b6136be8185613698565b93506136ce818560208601612fe1565b6136d78161300b565b840191505092915050565b60006136ee83836136a9565b905092915050565b6000602082019050919050565b600061370e8261366d565b6137188185613678565b93508360208202850161372a85613683565b8060005b85811015613766578484038952815161374785826136e2565b9450613752836136f6565b925060208a0199505060018101905061372e565b50829750879550505050505092915050565b60006101008301600083015161379160008601826135d8565b5060208301516137a460208601826135d8565b5060408301516137b760408601826135e7565b5060608301516137ca60608601826135d8565b5060808301516137dd608086018261365e565b5060a08301516137f060a08601826135d8565b5060c083015161380360c08601826135e7565b5060e083015184820360e086015261381b8282613703565b9150508091505092915050565b600060208201905081810360008301526138428184613778565b905092915050565b6000806040838503121561386157613860612ecc565b5b600061386f85828601613143565b9250506020613880858286016131af565b9150509250929050565b600082825260208201905092915050565b60006138a68261368d565b6138b0818561388a565b93506138c0818560208601612fe1565b6138c98161300b565b840191505092915050565b600060208201905081810360008301526138ee818461389b565b905092915050565b600080600080608085870312156139105761390f612ecc565b5b600061391e87828801613143565b945050602061392f87828801613143565b93505060406139408782880161308e565b925050606085013567ffffffffffffffff81111561396157613960612ed1565b5b61396d878288016133a5565b91505092959194509250565b600080fd5b60008083601f840112613994576139936132ee565b5b8235905067ffffffffffffffff8111156139b1576139b0613979565b5b6020830191508360208202830111156139cd576139cc613319565b5b9250929050565b6000806000604084860312156139ed576139ec612ecc565b5b600084013567ffffffffffffffff811115613a0b57613a0a612ed1565b5b613a178682870161397e565b93509350506020613a2a8682870161308e565b9150509250925092565b60008060408385031215613a4b57613a4a612ecc565b5b6000613a5985828601613143565b9250506020613a6a85828601613143565b9150509250929050565b7f4e487b7100000000000000000000000000000000000000000000000000000000600052602260045260246000fd5b60006002820490506001821680613abb57607f821691505b602082108103613ace57613acd613a74565b5b50919050565b613add81612f91565b82525050565b6000602082019050613af86000830184613ad4565b92915050565b600067ffffffffffffffff821115613b1957613b18613249565b5b613b228261300b565b9050602081019050919050565b6000613b42613b3d84613afe565b6132a9565b905082815260208101848484011115613b5e57613b5d61331e565b5b613b69848285612fe1565b509392505050565b600082601f830112613b8657613b856132ee565b5b8151613b96848260208601613b2f565b91505092915050565b600060208284031215613bb557613bb4612ecc565b5b600082015167ffffffffffffffff811115613bd357613bd2612ed1565b5b613bdf84828501613b71565b91505092915050565b7f2261747472696275746573223a205b0000000000000000000000000000000000815250565b600081905092915050565b6000613c2482612fc5565b613c2e8185613c0e565b9350613c3e818560208601612fe1565b80840191505092915050565b7f2c00000000000000000000000000000000000000000000000000000000000000815250565b7f5d00000000000000000000000000000000000000000000000000000000000000815250565b6000613ca182613be8565b600f82019150613cb18289613c19565b9150613cbc82613c4a565b600182019150613ccc8288613c19565b9150613cd782613c4a565b600182019150613ce78287613c19565b9150613cf282613c4a565b600182019150613d028286613c19565b9150613d0d82613c4a565b600182019150613d1d8285613c19565b9150613d2882613c4a565b600182019150613d388284613c19565b9150613d4382613c70565b600182019150819050979650505050505050565b7f4e487b7100000000000000000000000000000000000000000000000000000000600052601160045260246000fd5b6000613d9182612f91565b9150613d9c83612f91565b9250828201905080821115613db457613db3613d57565b5b92915050565b7f4e487b7100000000000000000000000000000000000000000000000000000000600052603260045260246000fd5b6000613df482612f91565b9150613dff83612f91565b9250828202613e0d81612f91565b91508282048414831517613e2457613e23613d57565b5b5092915050565b6000613e3682612f91565b9150613e4183612f91565b9250828203905081811115613e5957613e58613d57565b5b92915050565b600081905092915050565b50565b6000613e7a600083613e5f565b9150613e8582613e6a565b600082019050919050565b6000613e9b82613e6d565b9150819050919050565b6000613eb08261368d565b613eba8185613e5f565b9350613eca818560208601612fe1565b80840191505092915050565b6000613ee2828a613ea5565b9150613eee8289613ea5565b9150613efa8288613ea5565b9150613f068287613ea5565b9150613f128286613ea5565b9150613f1e8285613ea5565b9150613f2a8284613ea5565b915081905098975050505050505050565b6000613f4682612f91565b91507fffffffffffffffffffffffffffffffffffffffffffffffffffffffffffffffff8203613f7857613f77613d57565b5b600182019050919050565b6000613f96613f9184613323565b6132a9565b905082815260208101848484011115613fb257613fb161331e565b5b613fbd848285612fe1565b509392505050565b600082601f830112613fda57613fd96132ee565b5b8151613fea848260208601613f83565b91505092915050565b60006020828403121561400957614008612ecc565b5b600082015167ffffffffffffffff81111561402757614026612ed1565b5b61403384828501613fc5565b91505092915050565b7f7b226e616d65223a220000000000000000000000000000000000000000000000600082015250565b6000614072600983613c0e565b915061407d8261403c565b600982019050919050565b7f4574686572506c616e6574202300000000000000000000000000000000000000600082015250565b60006140be600d83613c0e565b91506140c982614088565b600d82019050919050565b7f222c20226465736372697074696f6e223a220000000000000000000000000000600082015250565b600061410a601283613c0e565b9150614115826140d4565b601282019050919050565b7f46756c6c79206f6e2d636861696e2c2070726f6365647572616c6c792067656e60008201527f6572617465642c20334420706c616e6574732e00000000000000000000000000602082015250565b600061417c603383613c0e565b915061418782614120565b603382019050919050565b7f222c22696d616765223a22646174613a696d6167652f7376672b786d6c3b626160008201527f736536342c000000000000000000000000000000000000000000000000000000602082015250565b60006141ee602583613c0e565b91506141f982614192565b602582019050919050565b7f222c22616e696d6174696f6e5f75726c223a2200000000000000000000000000600082015250565b600061423a601383613c0e565b915061424582614204565b601382019050919050565b7f222c000000000000000000000000000000000000000000000000000000000000600082015250565b6000614286600283613c0e565b915061429182614250565b600282019050919050565b7f7d00000000000000000000000000000000000000000000000000000000000000600082015250565b60006142d2600183613c0e565b91506142dd8261429c565b600182019050919050565b60006142f382614065565b91506142fe826140b1565b915061430a8287613c19565b9150614315826140fd565b91506143208261416f565b915061432b826141e1565b91506143378286613c19565b91506143428261422d565b915061434e8285613ea5565b915061435982614279565b91506143658284613c19565b9150614370826142c5565b915081905095945050505050565b7f646174613a6170706c69636174696f6e2f6a736f6e2c00000000000000000000600082015250565b60006143b4601683613c0e565b91506143bf8261437e565b601682019050919050565b60006143d5826143a7565b91506143e18284613ea5565b915081905092915050565b7f4f776e61626c653a206e6577206f776e657220697320746865207a65726f206160008201527f6464726573730000000000000000000000000000000000000000000000000000602082015250565b6000614448602683612fd0565b9150614453826143ec565b604082019050919050565b600060208201905081810360008301526144778161443b565b9050919050565b7f4f776e61626c653a2063616c6c6572206973206e6f7420746865206f776e6572600082015250565b60006144b4602083612fd0565b91506144bf8261447e565b602082019050919050565b600060208201905081810360008301526144e3816144a7565b9050919050565b7f7b2274726169745f74797065223a220000000000000000000000000000000000815250565b7f222c2276616c7565223a00000000000000000000000000000000000000000000815250565b7f7d00000000000000000000000000000000000000000000000000000000000000815250565b6000614567826144ea565b600f820191506145778285613c19565b915061458282614510565b600a820191506145928284613c19565b915061459d82614536565b6001820191508190509392505050565b7f222c2276616c7565223a22000000000000000000000000000000000000000000815250565b7f227d000000000000000000000000000000000000000000000000000000000000815250565b6000614604826144ea565b600f820191506146148285613c19565b915061461f826145ad565b600b8201915061462f8284613c19565b915061463a826145d3565b6002820191508190509392505050565b60006146568285613c19565b91506146628284613c19565b91508190509392505050565b7f4e487b7100000000000000000000000000000000000000000000000000000000600052601260045260246000fd5b60006146a882612f91565b91506146b383612f91565b9250826146c3576146c261466e565b5b828206905092915050565b7f7661722000000000000000000000000000000000000000000000000000000000600082015250565b6000614704600483613c0e565b915061470f826146ce565b600482019050919050565b7f3d00000000000000000000000000000000000000000000000000000000000000600082015250565b6000614750600183613c0e565b915061475b8261471a565b600182019050919050565b7f3b00000000000000000000000000000000000000000000000000000000000000600082015250565b600061479c600183613c0e565b91506147a782614766565b600182019050919050565b60006147bd826146f7565b91506147c98285613ea5565b91506147d482614743565b91506147e08284613c19565b91506147eb8261478f565b91508190509392505050565b600060808201905061480c6000830187613102565b6148196020830186613102565b6148266040830185612f9b565b8181036060830152614838818461389b565b905095945050505050565b60008151905061485281612f02565b92915050565b60006020828403121561486e5761486d612ecc565b5b600061487c84828501614843565b91505092915050565b60006148918284613c19565b91508190509291505056fea264697066735822122086b5c7449e29e8de509c70ef7a3f2fac4937ae0790460649313afd14a874a0b564736f6c63430008120033",
  "libraries": {
    "utils": "0x0e47A2B3de8c3dC9d7F11952164d73A0c1D9D5aC"
  },
  "devdoc": {
    "events": {
      "Approval(address,address,uint256)": {
        "details": "Emitted when `owner` enables `approved` to manage the `tokenId` token."
      },
      "ApprovalForAll(address,address,bool)": {
        "details": "Emitted when `owner` enables or disables (`approved`) `operator` to manage all of its assets."
      },
      "ConsecutiveTransfer(uint256,uint256,address,address)": {
        "details": "Emitted when tokens in `fromTokenId` to `toTokenId` (inclusive) is transferred from `from` to `to`, as defined in the [ERC2309](https://eips.ethereum.org/EIPS/eip-2309) standard. See {_mintERC2309} for more details."
      },
      "Transfer(address,address,uint256)": {
        "details": "Emitted when `tokenId` token is transferred from `from` to `to`."
      }
    },
    "kind": "dev",
    "methods": {
      "airdrop(address[],uint256)": {
        "params": {
          "_quantity": "Quantity of tokens to airdrop to each recipient.",
          "_recipients": "List of recipients to receive the airdrop."
        }
      },
      "approve(address,uint256)": {
        "details": "Gives permission to `to` to transfer `tokenId` token to another account. The approval is cleared when the token is transferred. Only a single account can be approved at a time, so approving the zero address clears previous approvals. Requirements: - The caller must own the token or be an approved operator. - `tokenId` must exist. Emits an {Approval} event."
      },
      "balanceOf(address)": {
        "details": "Returns the number of tokens in `owner`'s account."
      },
      "buildAttributes((uint256,uint256,bool,uint256,uint8,uint256,bool,bytes[7]))": {
        "params": {
          "settings": "- Track settings struct"
        },
        "returns": {
          "attr": "- array as a string"
        }
      },
      "buildSettings(uint256)": {
        "params": {
          "_tokenId": "- Token ID for seed value"
        },
        "returns": {
          "settings": "- All settings as a struct"
        }
      },
      "buildVars((uint256,uint256,bool,uint256,uint8,uint256,bool,bytes[7]))": {
        "params": {
          "settings": "- Track settings struct"
        },
        "returns": {
          "vars": "- base64 encoded JS compatible setting variables"
        }
      },
      "getApproved(uint256)": {
        "details": "Returns the account approved for `tokenId` token. Requirements: - `tokenId` must exist."
      },
      "isApprovedForAll(address,address)": {
        "details": "Returns if the `operator` is allowed to manage all of the assets of `owner`. See {setApprovalForAll}."
      },
      "mint(uint256)": {
        "params": {
          "_quantity": "Quantity of tokens to mint."
        }
      },
      "name()": {
        "details": "Returns the token collection name."
      },
      "owner()": {
        "details": "Returns the address of the current owner."
      },
      "ownerOf(uint256)": {
        "details": "Returns the owner of the `tokenId` token. Requirements: - `tokenId` must exist."
      },
      "renounceOwnership()": {
        "details": "Leaves the contract without owner. It will not be possible to call `onlyOwner` functions anymore. Can only be called by the current owner. NOTE: Renouncing ownership will leave the contract without an owner, thereby removing any functionality that is only available to the owner."
      },
      "safeTransferFrom(address,address,uint256)": {
        "details": "Equivalent to `safeTransferFrom(from, to, tokenId, '')`."
      },
      "safeTransferFrom(address,address,uint256,bytes)": {
        "details": "Safely transfers `tokenId` token from `from` to `to`. Requirements: - `from` cannot be the zero address. - `to` cannot be the zero address. - `tokenId` token must exist and be owned by `from`. - If the caller is not `from`, it must be approved to move this token by either {approve} or {setApprovalForAll}. - If `to` refers to a smart contract, it must implement {IERC721Receiver-onERC721Received}, which is called upon a safe transfer. Emits a {Transfer} event."
      },
      "setApprovalForAll(address,bool)": {
        "details": "Approve or remove `operator` as an operator for the caller. Operators can call {transferFrom} or {safeTransferFrom} for any token owned by the caller. Requirements: - The `operator` cannot be the caller. Emits an {ApprovalForAll} event."
      },
      "setMintStatus(bool)": {
        "params": {
          "_state": "- Boolean state for being open or closed."
        }
      },
      "setPrice(uint256)": {
        "details": "Very doubtful this gets used, but good to have",
        "params": {
          "_price": "- The new price."
        }
      },
      "setRendererAddress(address)": {
        "params": {
          "_rendererAddress": "- Address of the renderer contract."
        }
      },
      "setThumbnailAddress(address)": {
        "params": {
          "_thumbnailAddress": "- Address of the thumbnail contract."
        }
      },
      "supportsInterface(bytes4)": {
        "details": "Returns true if this contract implements the interface defined by `interfaceId`. See the corresponding [EIP section](https://eips.ethereum.org/EIPS/eip-165#how-interfaces-are-identified) to learn more about how these ids are created. This function call must use less than 30000 gas."
      },
      "symbol()": {
        "details": "Returns the token collection symbol."
      },
      "tokenURI(uint256)": {
        "details": "This depends on      - https://ethfs.xyz/ [stores code libraries]      - https://github.com/intartnft/scripty.sol [builds rendering html and stores code libraries]",
        "params": {
          "_tokenId": "- TokenId to build planet for"
        },
        "returns": {
          "metadata": "- as string"
        }
      },
      "totalMinted()": {
        "returns": {
          "_0": "Total number of minted tokens"
        }
      },
      "totalSupply()": {
        "details": "Returns the total number of tokens in existence. Burned tokens will reduce the count. To get the total number of tokens minted, please see {_totalMinted}."
      },
      "transferFrom(address,address,uint256)": {
        "details": "Transfers `tokenId` from `from` to `to`. Requirements: - `from` cannot be the zero address. - `to` cannot be the zero address. - `tokenId` token must be owned by `from`. - If the caller is not `from`, it must be approved to move this token by either {approve} or {setApprovalForAll}. Emits a {Transfer} event."
      },
      "transferOwnership(address)": {
        "details": "Transfers ownership of the contract to a new account (`newOwner`). Can only be called by the current owner."
      }
    },
    "version": 1
  },
  "userdoc": {
    "errors": {
      "ApprovalCallerNotOwnerNorApproved()": [
        {
          "notice": "The caller must own the token or be an approved operator."
        }
      ],
      "ApprovalQueryForNonexistentToken()": [
        {
          "notice": "The token does not exist."
        }
      ],
      "BalanceQueryForZeroAddress()": [
        {
          "notice": "Cannot query the balance for the zero address."
        }
      ],
      "MintERC2309QuantityExceedsLimit()": [
        {
          "notice": "The `quantity` minted with ERC2309 exceeds the safety limit."
        }
      ],
      "MintToZeroAddress()": [
        {
          "notice": "Cannot mint to the zero address."
        }
      ],
      "MintZeroQuantity()": [
        {
          "notice": "The quantity of tokens minted must be more than zero."
        }
      ],
      "OwnerQueryForNonexistentToken()": [
        {
          "notice": "The token does not exist."
        }
      ],
      "OwnershipNotInitializedForExtraData()": [
        {
          "notice": "The `extraData` cannot be set on an unintialized ownership slot."
        }
      ],
      "TransferCallerNotOwnerNorApproved()": [
        {
          "notice": "The caller must own the token or be an approved operator."
        }
      ],
      "TransferFromIncorrectOwner()": [
        {
          "notice": "The token must be owned by `from`."
        }
      ],
      "TransferToNonERC721ReceiverImplementer()": [
        {
          "notice": "Cannot safely transfer to a contract that does not implement the ERC721Receiver interface."
        }
      ],
      "TransferToZeroAddress()": [
        {
          "notice": "Cannot transfer to the zero address."
        }
      ],
      "URIQueryForNonexistentToken()": [
        {
          "notice": "The token does not exist."
        }
      ]
    },
    "kind": "user",
    "methods": {
      "airdrop(address[],uint256)": {
        "notice": "Airdrops tokens to a list of recipients. Only callable by the contract owner."
      },
      "buildAttributes((uint256,uint256,bool,uint256,uint8,uint256,bool,bytes[7]))": {
        "notice": "Build attributes for metadata"
      },
      "buildSettings(uint256)": {
        "notice": "Build all the settings into a struct"
      },
      "buildVars((uint256,uint256,bool,uint256,uint8,uint256,bool,bytes[7]))": {
        "notice": "Pack and base64 encode JS compatible vars"
      },
      "mint(uint256)": {
        "notice": "Mints new tokens for the caller."
      },
      "setMintStatus(bool)": {
        "notice": "Open or close minting"
      },
      "setPrice(uint256)": {
        "notice": "Update the mint price."
      },
      "setRendererAddress(address)": {
        "notice": "Update renderer contract address"
      },
      "setThumbnailAddress(address)": {
        "notice": "Update thumbnail contract address"
      },
      "tokenURI(uint256)": {
        "notice": "Build the metadata including the full render html for the planet"
      },
      "totalMinted()": {
        "notice": "Retrieve how many tokens have been minted"
      },
      "withdraw()": {
        "notice": "Withdraws the contract's balance. Only callable by the contract owner."
      }
    },
    "version": 1
  },
  "storageLayout": {
    "storage": [
      {
        "astId": 1801,
        "contract": "contracts/Planets.sol:Planets",
        "label": "_currentIndex",
        "offset": 0,
        "slot": "0",
        "type": "t_uint256"
      },
      {
        "astId": 1803,
        "contract": "contracts/Planets.sol:Planets",
        "label": "_burnCounter",
        "offset": 0,
        "slot": "1",
        "type": "t_uint256"
      },
      {
        "astId": 1805,
        "contract": "contracts/Planets.sol:Planets",
        "label": "_name",
        "offset": 0,
        "slot": "2",
        "type": "t_string_storage"
      },
      {
        "astId": 1807,
        "contract": "contracts/Planets.sol:Planets",
        "label": "_symbol",
        "offset": 0,
        "slot": "3",
        "type": "t_string_storage"
      },
      {
        "astId": 1811,
        "contract": "contracts/Planets.sol:Planets",
        "label": "_packedOwnerships",
        "offset": 0,
        "slot": "4",
        "type": "t_mapping(t_uint256,t_uint256)"
      },
      {
        "astId": 1815,
        "contract": "contracts/Planets.sol:Planets",
        "label": "_packedAddressData",
        "offset": 0,
        "slot": "5",
        "type": "t_mapping(t_address,t_uint256)"
      },
      {
        "astId": 1820,
        "contract": "contracts/Planets.sol:Planets",
        "label": "_tokenApprovals",
        "offset": 0,
        "slot": "6",
        "type": "t_mapping(t_uint256,t_struct(TokenApprovalRef)1733_storage)"
      },
      {
        "astId": 1826,
        "contract": "contracts/Planets.sol:Planets",
        "label": "_operatorApprovals",
        "offset": 0,
        "slot": "7",
        "type": "t_mapping(t_address,t_mapping(t_address,t_bool))"
      },
      {
        "astId": 7,
        "contract": "contracts/Planets.sol:Planets",
        "label": "_owner",
        "offset": 0,
        "slot": "8",
        "type": "t_address"
      },
      {
        "astId": 155,
        "contract": "contracts/Planets.sol:Planets",
        "label": "thumbnailAddress",
        "offset": 0,
        "slot": "9",
        "type": "t_address"
      },
      {
        "astId": 157,
        "contract": "contracts/Planets.sol:Planets",
        "label": "rendererAddress",
        "offset": 0,
        "slot": "10",
        "type": "t_address"
      },
      {
        "astId": 159,
        "contract": "contracts/Planets.sol:Planets",
        "label": "price",
        "offset": 0,
        "slot": "11",
        "type": "t_uint256"
      },
      {
        "astId": 161,
        "contract": "contracts/Planets.sol:Planets",
        "label": "isOpen",
        "offset": 0,
        "slot": "12",
        "type": "t_bool"
      },
      {
        "astId": 163,
        "contract": "contracts/Planets.sol:Planets",
        "label": "finalized",
        "offset": 1,
        "slot": "12",
        "type": "t_bool"
      }
    ],
    "types": {
      "t_address": {
        "encoding": "inplace",
        "label": "address",
        "numberOfBytes": "20"
      },
      "t_bool": {
        "encoding": "inplace",
        "label": "bool",
        "numberOfBytes": "1"
      },
      "t_mapping(t_address,t_bool)": {
        "encoding": "mapping",
        "key": "t_address",
        "label": "mapping(address => bool)",
        "numberOfBytes": "32",
        "value": "t_bool"
      },
      "t_mapping(t_address,t_mapping(t_address,t_bool))": {
        "encoding": "mapping",
        "key": "t_address",
        "label": "mapping(address => mapping(address => bool))",
        "numberOfBytes": "32",
        "value": "t_mapping(t_address,t_bool)"
      },
      "t_mapping(t_address,t_uint256)": {
        "encoding": "mapping",
        "key": "t_address",
        "label": "mapping(address => uint256)",
        "numberOfBytes": "32",
        "value": "t_uint256"
      },
      "t_mapping(t_uint256,t_struct(TokenApprovalRef)1733_storage)": {
        "encoding": "mapping",
        "key": "t_uint256",
        "label": "mapping(uint256 => struct ERC721A.TokenApprovalRef)",
        "numberOfBytes": "32",
        "value": "t_struct(TokenApprovalRef)1733_storage"
      },
      "t_mapping(t_uint256,t_uint256)": {
        "encoding": "mapping",
        "key": "t_uint256",
        "label": "mapping(uint256 => uint256)",
        "numberOfBytes": "32",
        "value": "t_uint256"
      },
      "t_string_storage": {
        "encoding": "bytes",
        "label": "string",
        "numberOfBytes": "32"
      },
      "t_struct(TokenApprovalRef)1733_storage": {
        "encoding": "inplace",
        "label": "struct ERC721A.TokenApprovalRef",
        "members": [
          {
            "astId": 1732,
            "contract": "contracts/Planets.sol:Planets",
            "label": "value",
            "offset": 0,
            "slot": "0",
            "type": "t_address"
          }
        ],
        "numberOfBytes": "32"
      },
      "t_uint256": {
        "encoding": "inplace",
        "label": "uint256",
        "numberOfBytes": "32"
      }
    }
  }
}