{
  "address": "0x0e47A2B3de8c3dC9d7F11952164d73A0c1D9D5aC",
  "abi": [
    {
      "inputs": [
        {
          "internalType": "bytes",
          "name": "_input",
          "type": "bytes"
        }
      ],
      "name": "assemblyKeccak",
      "outputs": [
        {
          "internalType": "bytes32",
          "name": "x",
          "type": "bytes32"
        }
      ],
      "stateMutability": "pure",
      "type": "function"
    },
    {
      "inputs": [
        {
          "internalType": "uint256",
          "name": "_hue",
          "type": "uint256"
        }
      ],
      "name": "getColorName",
      "outputs": [
        {
          "internalType": "string",
          "name": "",
          "type": "string"
        }
      ],
      "stateMutability": "pure",
      "type": "function"
    }
  ],
  "transactionHash": "0x0ce341e9e8c03e743310e95ec1036d65f085d5ffbcb3ed30c177691b987b3d00",
  "args": [],
  "numDeployments": 1,
  "solcInputHash": "98128eea7ffdee4216570b3dbfc8b11f",
  "bytecode": "0x61089b610053600b82828239805160001a607314610046577f4e487b7100000000000000000000000000000000000000000000000000000000600052600060045260246000fd5b30600052607381538281f3fe73000000000000000000000000000000000000000030146080604052600436106100405760003560e01c80630d56fe8714610045578063ad4f5fd414610075575b600080fd5b61005f600480360381019061005a9190610457565b6100a5565b60405161006c9190610514565b60405180910390f35b61008f600480360381019061008a919061066b565b6103fd565b60405161009c91906106cd565b60405180910390f35b606060006040518061018001604052806040518060400160405280600381526020017f526564000000000000000000000000000000000000000000000000000000000081525081526020016040518060400160405280600681526020017f4f72616e6765000000000000000000000000000000000000000000000000000081525081526020016040518060400160405280600681526020017f59656c6c6f77000000000000000000000000000000000000000000000000000081525081526020016040518060400160405280600a81526020017f436861727472657573650000000000000000000000000000000000000000000081525081526020016040518060400160405280600581526020017f477265656e00000000000000000000000000000000000000000000000000000081525081526020016040518060400160405280600681526020017f537072696e67000000000000000000000000000000000000000000000000000081525081526020016040518060400160405280600481526020017f4379616e0000000000000000000000000000000000000000000000000000000081525081526020016040518060400160405280600581526020017f417a75726500000000000000000000000000000000000000000000000000000081525081526020016040518060400160405280600481526020017f426c75650000000000000000000000000000000000000000000000000000000081525081526020016040518060400160405280600681526020017f56696f6c6574000000000000000000000000000000000000000000000000000081525081526020016040518060400160405280600781526020017f4d6167656e74610000000000000000000000000000000000000000000000000081525081526020016040518060400160405280600481526020017f526f73650000000000000000000000000000000000000000000000000000000081525081525090506101688311156103be576040517f08c379a00000000000000000000000000000000000000000000000000000000081526004016103b590610745565b60405180910390fd5b6000610168600c856103d09190610794565b6103da9190610805565b90508181600c81106103ef576103ee610836565b5b602002015192505050919050565b6000815160208301209050919050565b6000604051905090565b600080fd5b600080fd5b6000819050919050565b61043481610421565b811461043f57600080fd5b50565b6000813590506104518161042b565b92915050565b60006020828403121561046d5761046c610417565b5b600061047b84828501610442565b91505092915050565b600081519050919050565b600082825260208201905092915050565b60005b838110156104be5780820151818401526020810190506104a3565b60008484015250505050565b6000601f19601f8301169050919050565b60006104e682610484565b6104f0818561048f565b93506105008185602086016104a0565b610509816104ca565b840191505092915050565b6000602082019050818103600083015261052e81846104db565b905092915050565b600080fd5b600080fd5b7f4e487b7100000000000000000000000000000000000000000000000000000000600052604160045260246000fd5b610578826104ca565b810181811067ffffffffffffffff8211171561059757610596610540565b5b80604052505050565b60006105aa61040d565b90506105b6828261056f565b919050565b600067ffffffffffffffff8211156105d6576105d5610540565b5b6105df826104ca565b9050602081019050919050565b82818337600083830152505050565b600061060e610609846105bb565b6105a0565b90508281526020810184848401111561062a5761062961053b565b5b6106358482856105ec565b509392505050565b600082601f83011261065257610651610536565b5b81356106628482602086016105fb565b91505092915050565b60006020828403121561068157610680610417565b5b600082013567ffffffffffffffff81111561069f5761069e61041c565b5b6106ab8482850161063d565b91505092915050565b6000819050919050565b6106c7816106b4565b82525050565b60006020820190506106e260008301846106be565b92915050565b600082825260208201905092915050565b7f487565206d757374206265206265747765656e203020616e6420333630000000600082015250565b600061072f601d836106e8565b915061073a826106f9565b602082019050919050565b6000602082019050818103600083015261075e81610722565b9050919050565b7f4e487b7100000000000000000000000000000000000000000000000000000000600052601160045260246000fd5b600061079f82610421565b91506107aa83610421565b92508282026107b881610421565b915082820484148315176107cf576107ce610765565b5b5092915050565b7f4e487b7100000000000000000000000000000000000000000000000000000000600052601260045260246000fd5b600061081082610421565b915061081b83610421565b92508261082b5761082a6107d6565b5b828204905092915050565b7f4e487b7100000000000000000000000000000000000000000000000000000000600052603260045260246000fdfea26469706673582212205665006e82df1cf78331bd83cb55b7179b4d1833c4c8db9ac8a0b9c6f7c9e69d64736f6c63430008120033",
  "devdoc": {
    "kind": "dev",
    "methods": {},
    "version": 1
  },
  "userdoc": {
    "kind": "user",
    "methods": {},
    "version": 1
  },
  "storageLayout": {
    "storage": [],
    "types": null
  }
}